:020000040800F2
:1000000000500020919A0108499B0108B183010822
:10001000499B0108499B0108499B01080000000019
:10002000000000000000000000000000499B0108E3
:10003000499B010800000000499B0108F15201089A
:10004000499B0108499B0108499B0108499B0108FC
:10005000499B0108499B010805F4000803F40008C6
:1000600001F40008FFF30008FDF3000845910008C3
:1000700035910008259100081591000805910008A8
:10008000F1900008DD900008499B0108499B010898
:10009000499B0108499B0108499B0108FBF30008A3
:1000A000499B010875FE0008499B010885FE000870
:1000B00069FE000859FE000849FE0008499B010836
:1000C000499B0108499B0108499B0108499B01087C
:1000D000499B0108D98D0008D18D0008499B010872
:1000E000F9F30008499B0108499B01080000000042
:1000F0000000000000000000000000000000000000
:0C01000000000000000000005FF808F1A3
:100110002DE9F04FA74BA84CA84AC4F8A431DFF84A
:10012000E482A74BDFF8C892002588F80050C4F895
:10013000A851DA60D9F81830A1B043F00103C9F82A
:100140001830D9F8243020AEC4F8AC31D9F82430B6
:100150009C4F43F08073C9F82430D9F818303846E2
:1001600043F01C03C9F818304FF6FF7326F82C3DF6
:1001700031468DF8565008F006FF3146924808F097
:1001800002FF3146914808F0FEFE10238DF85630EC
:1001900002238DF857304FF400733146ADF85430D8
:1001A00038463B6108F0EFFE894A264653684746C9
:1001B00043F000735360C4F8B051C4F8B45108F070
:1001C000C3FDA04629464C46824D8A0202F1804278
:1001D00035F811E002F5843200234EFA03F0C0072F
:1001E00044BF0120984003F1010342BF3260B08058
:1001F0000C36102BF1D101310329E5D1764A77492C
:10020000136891468B4201D1012203E0744A934264
:1002100002D10222734B1A70734B1B787E2B04D0D1
:1002200013F09EFC11F0B6FC03E00FF018FA002862
:10023000F6D013F06DFA0023089309930A934FF454
:10024000E0130B932368694E43F48033317A2360C3
:10025000A36943F01003A361236803F400330993F7
:10026000089B01330893099B1BB9089BB3F5A06F4A
:10027000F2D123685E4813F4003301D0022315E065
:10028000026842F0010202600893236803F002034F
:100290000993089B01330893099B1BB9089BB3F58D
:1002A000A06FF2D123689B073BD501230A93514BE2
:1002B0001A6842F010021A601A6822F003021A60EB
:1002C0001A6842F002021A606368636063686360E0
:1002D000636843F480636360474B1A68043B22F011
:1002E00070425A603D4AC9F80020626822F47C12CC
:1002F00062605A6842F000425A60DA6822F40042B2
:10030000DA609B68180445BF334B354A4FF4E0135D
:100310001A6048BF4FF480130B930A9B012B01D145
:1003200017E0FEE7022B18D169B10B9BB3F5801FD4
:1003300002D14FF4002305E00B9BB3F5E01F02D17F
:100340004FF480130B930B9A6368134343F4803389
:1003500002E0636843F460136360236843F08073D2
:1003600023602268224B9201FBD55A6822F00302D7
:100370005A605A6842F002025A6063681C4A03F0ED
:100380000C03082BF9D153681C4903F00C03042B10
:1003900003D0082B04D0114B3EE0D9F800303BE0ED
:1003A00053685068C3F38343C00303F102032BD4A3
:1003B000134A30E0231F0108900500200005FA05CC
:1003C00000ED00E000080140000C01400010014079
:1003D00000000140E0AD01081001002000127A0089
:1003E000001BB7000C42002000F80108BC100020E0
:1003F00000100240002002400410014018050020B7
:1004000000093D000F420020526812F4003FD9F865
:10041000002018BF520853430B606368C3F30313F3
:100420002B449A790B68D3400B6008F08DFCF2796D
:100430009E4B0020DA71DA733B78014643F00103EA
:100440003B70B3799A4E88F8B8319A4B1B68336089
:100450000EF0BDFF012000210EF0B9FF0023964AE7
:100460005F1C52F8230038B1172383710223C37134
:10047000077212210EF08EFD032F3B46EFD10020B4
:1004800001460EF0A4FF012000210EF0A0FFA36999
:10049000DFF838A243F00103A361002140220AF5EE
:1004A000DE7019F03DFC0AF5FE70FF21072219F0FD
:1004B00037FC33681F0713D5804B1A7A9946012AF7
:1004C0000ED85F7C08F07CFC044648B9013F092F38
:1004D00041F2638604E09AF81230012B01F09B860A
:1004E0004FF4FA7014F0F9FE75480021A02219F0BB
:1004F00017FC0024734F0023E15973484FEAC30EE1
:1005000050F833208A4203D100EB0E03187903E040
:100510000133042BF1D100200C3417F0D7FFA82CA5
:10052000E8D10022694B002403F5297154540132AB
:100530000E2AF7D1FF22D6F800A083F8B22283F862
:10054000B32283F8B42283F8B522214660483022D2
:1005500019F0E6FB0AF0400904215E4B5C48E25CBE
:100560000C2363431A54B9F1000F07D11E3A012A34
:100570009FBFFF2201F1FF311A54C9B20134042C8C
:10058000EBD1554C88F8B61294F80080A14640464D
:100590000BF0BAFF4FEAC80E754495F825204F4B73
:1005A0001A704F4B95F826201A70837A13B9CAF344
:1005B000401100E00121454C84F8B71233B9494B92
:1005C0000AEA0303003318BF012300E00123C4F843
:1005D000B832002240F2DC50434B23F812000132C3
:1005E000082AF7D129B9A8F11708B8F1020F1DD8C8
:1005F00012E03E4B3E49734493F824200A70996AF6
:100600000029F0D000239342EDDA51F82350394805
:1006100040F823500133F6E70BF024F9344B1B78F4
:1006200023B10123C4F8B83284F8B732DFF8D080A0
:100630000025B8F908B0B8F90600DFF8C8A0CBEB80
:10064000000018F035FC2C4918F03AFD4AF8050076
:10065000B8F90400AA44C0EB0B0018F029FC2649A5
:1006600018F02EFD0835402DCAF8040008F10C08DA
:10067000DFD10BF05BFF0DA80021202219F050FB09
:1006800099F800000BF040FF00B1007A0D900023B4
:100690001A4A02EBC30191F90210012934D132F850
:1006A0003330003318BF012332E000BFE0020020E6
:1006B000742200200C120020F8AD01081839002027
:1006C00094070020C0DD01089CCC010890050020A3
:1006D00040220020FAE50108642600203123002092
:1006E000322300202000100028110020E0AD010876
:1006F00030230020332300200000FA431E22002074
:10070000B42300204C0800200133042BC0D1002367
:100710008DF83E303368C3F340028DF84120C3F3B7
:1007200080128DF84320C3F340328DF83920C3F393
:10073000C0328DF83C2013F4006204D0BD4A927A96
:10074000551E6A426A418DF83D20C3F300428DF880
:10075000442003F001028DF83A20C3F3C0028DF863
:100760003B2094F8B722003218BF01228DF84520B3
:10077000C3F300528DF84620AF4A11885288ADF875
:100780004A10AE49ADF848200A7A501E02288CBFA4
:10079000002001208DF84200C8888988ADF84E00FD
:1007A000D80448BFA64BADF8501048BF9B888DF8C1
:1007B0004C2048BFADF85030042A08D100254FF432
:1007C00080508DF842500EF0A7FEADF850503368BF
:1007D0009C48C3F300738DF838309B4B00219B7A03
:1007E000782284F8FC3219F09BFA984D4FF00008FB
:1007F0009DF83E302BB115F8033C123B012B40F223
:10080000C681162010F0A7FD9DF8436036B128B1CF
:10081000026855F8073C9A4200F0B981202010F098
:100820009AFD36B128B1026855F8073C9A4200F0AB
:10083000AE819DF83B3073B99DF839301BB1D5F8C6
:100840000130990709D49DF83A303BB1D5F8013011
:1008500003F0010302E0002300E002230D9AA2B995
:100860009DF8452022B1D5F80120120700F1B3858B
:100870009DF8462022B1D5F80120D60600F1AB85BF
:10088000D5F8012012F0040F09E0013A012A08D836
:10089000D5F80120500600F19E8512F0200F40F09F
:1008A0009D85002B00F07381012BA5F107066ED109
:1008B0000023FF219DF84C2084F87833C4F87C3362
:1008C000C4F88033C4F88433C4F8C83384F8CC1334
:1008D00084F8CD1384F8CE3384F8CF3384F8D03342
:1008E000F918896811F0240F04D0F85855F8071C3E
:1008F000884203D00C33A82BF2D10DE0531E032BFA
:100900000AD8DFE803F002060406082202E04822C3
:1009100000E018224E4B1A704FF0000A15F8030C35
:1009200084F8D4A3C4F8E0630EF00EFB4FF0010B83
:100930000222827180F807B080F808A029780EF0B2
:1009400029FB304651465A460FF066FB414B42495F
:10095000C4F8E433414B0A1DC4F8E8333046C4F808
:10096000ECA30FF097FA524655F8070C15F8021C45
:100970000EF07CFA94F80233202204EBC30383F8D0
:10098000092394F804335B4484F80433F9E0022B20
:100990006AD15FFA88F34FF01C0C0CFB03FC4FF09C
:1009A000010904EB0C0B4FF0000A15F8030C8BF84F
:1009B000D5338BF8D6A38BF8DEA38BF8D493CBF882
:1009C000E063CDF810C003930EF0BEFA039B80F8ED
:1009D00006904B44037280F8079029780EF0DAFAFB
:1009E000304651464A460FF017FB1D4ADDF810C04D
:1009F0001949CBF8E4231B4A6144CBF8E82330467D
:100A00000A1DCBF8ECA30FF045FA524655F8070C37
:100A100015F8021C0EF02AFA94F80233402204EB77
:100A2000C30383F8092394F80333C8444B4484F880
:100A30000333A6E03A380020141200204E2600208E
:100A40004826002090080020BC100020C7DD0108C7
:100A50000000002079EB000874090020F9EC000880
:100A6000A9EE000851EB0008032BDFF85CA35FD16F
:100A70009AF801C3BCF1050F00F289809DF84CB0D3
:100A8000BDF84EE00BF1FF32BDF850309DF8380054
:100A9000032A0FD8DFE802F002060A12DFF85CA38F
:100AA00008210FE0DFF858A318210BE0DFF854A36A
:100AB000482107E0DFF850A3012103E0DFF84CA351
:100AC00018210023BE4A00904A43B2FBFEF2304692
:100AD00092B2CDF80CC00EF0C2FABA4BDDF80CC0E1
:100AE000B94A43F82C009DF84230C0F80CA02BB155
:100AF00092F80233192102EBC30308E092F80233A3
:100B0000BBF1040F02EBC3030CBF0D21092183F8D5
:100B1000091392F8023392F80113013302EBC30375
:100B200083F800130131C3F8046382F8011328E04D
:100B30009AF800B3BBF1070F29D8BDF84820A04BA5
:100B40009DF8381093FBF2F20091BDF84A3092B252
:100B5000304601210EF083FA9AF802330A2201335B
:100B60000AEBC30383F801239AF800230AEB8B0BEB
:100B700083F800230132CBF8B404C3F804638AF885
:100B80000023914A92F80233013382F802338F4BEB
:100B90000C359D427FF42CAE8D4B8E4F1E78002578
:100BA0003046173E3D700BF0AFFC022E18D88A4E2F
:100BB0000021A85918F064FB20B1884D2B68D90496
:100BC00031D426E006F1600EAE44AB190FCB8EE8AF
:100BD0000F003B7810350133602D3B70E7D1ECE717
:100BE000794BD0F804E093F801C3437A9C4528BFC1
:100BF0009C4687F800C0BEF1000FDED06545DCDA08
:100C0000774E2B011E4473440FCB013586E80F004D
:100C1000F4E70BF05DFC9DF842306B4F4BBB0123BA
:100C200087F8943525E03F78012FF2D96C4B03F11A
:100C3000080603EB071303F118071036BE42E8D08D
:100C400056F8100C4FF07C5118F086F94FF07C519B
:100C500046F8100C56F8140C18F07EF94FF07C5141
:100C600046F8140C56F80C0C18F076F946F80C0CF3
:100C7000E3E75C4A1C20137843F0040313705A4BDB
:100C80001A789846022A35BF4FF000094FF0010943
:100C9000012600260EF058F987F89C95C7F89805AC
:100CA00058B1112282710222C27100229642027250
:100CB00014BF162112210EF06DF9002014F030FB44
:100CC00022200EF041F90646152383714FF00009EA
:100CD0000223C37180F8089012210EF05BF93046B0
:100CE000424E49460EF069FB307E17F0EFFB337E33
:100CF000012203F01F015B09022B02FA01F206D068
:100D0000032B08D13A490B691A430A6103E03849B9
:100D1000CB681A43CA60707D0EF016F94FF00C09CB
:100D20000B234FF0020AC37180F8069080F808A0E8
:100D3000F07D0EF009F90D23C37180F8069080F85C
:100D400008A0B07D0EF000F980F8069080F80790BA
:100D500080F808A0707D0EF0F7F81B210EF01AF94C
:100D6000F07D0EF0F1F807210EF014F9B07D0EF0D1
:100D7000EBF81B210EF00EF9307D20B10EF0E4F8F7
:100D800013210EF007F931691A4B99420AD103F584
:100D90006043DA6842F48052DA60DA6822F4805202
:100DA000DA6042E0144B994232D103F5EC331A6910
:100DB00042F480421A611A6922F4804234E000BF92
:100DC00040420F0030260020900500206FDE010811
:100DD0006426002020260020640A002074220020BF
:100DE000C40A00200F4200200C420020C002002054
:100DF000001002400030014000380040CDED0008F6
:100E0000A1ED00086DED000839ED000849ED00087E
:100E10007A4B994209D103F5EA331A6942F4004248
:100E20001A611A6922F400421A61337F13B901234F
:100E3000022001E0002318460A8802F4415242F4DD
:100E40004572134303430B808B8B307D23F4006387
:100E50001B041B0C8B8307230B820B889BB243F074
:100E600040030B8018B10EF06FF80EF0A1FA2C20A1
:100E70000EF06AF806469F23C4F8A0058DF83030BE
:100E8000322000238DF831308DF832308DF8333038
:100E900014F023FA30460EF0DDF804220CA915A850
:100EA00010F06CFA30460EF083FA9DF856309DF83B
:100EB00055201B0243EA02439DF857201343504A32
:100EC00093421BD0322014F008FA30460EF0C2F8DC
:100ED000F52010F089FAFF2010F086FA8DF8540002
:100EE00030460EF065FA9DF85430702B06D198F814
:100EF0000030022B02BF434B03221A70012008F07E
:100F000029F9002307932B689A0744BF97F8A42573
:100F10008DF81C201C0444BF97F8A5258DF81D20D2
:100F2000180507D5384B9B7A012B04BF97F8A635D7
:100F30008DF81E30354800211E2218F0F1FE0023E6
:100F400007AA9A5C511E0329314988BF002241F843
:100F500023200133042BF3D1002351F82320012A4D
:100F600000F03F820133042BF7D1002351F82320F6
:100F7000022A00F03B820133042BF7D1002351F801
:100F80002320032A00F037820133042BF7D10023FA
:100F900051F82320042A02BF1D4A002042F82300F2
:100FA0000133042BF4D1194F4FF0000BB8464FF02A
:100FB000010A98F80600002845D00DF0C5FF062369
:100FC00098F90790002483710AF10E03C37104722B
:100FD00098F806000DF0B8FF21460DF0DBFF214622
:100FE00098F806000B4A4B0002F1F40414F8114083
:100FF000844211D1134493F8F53011E0003C0040D5
:10100000152020000C4200203A380020380B002028
:10101000580B0020E0AD010801310A29E2D100237C
:1010200088F80830C64B142202FB09335A69511C58
:1010300088F80920072288F80B200122596188F8D6
:101040000A201A7493440AF1010ABAF1050F08F153
:101050000608AED1BBF1000F00F0E480B94ADFF81A
:10106000E092536843F44043536099F81030002BEA
:1010700000F0D88099F8080017F028FA99F80900CC
:1010800017F024FAD9F80CA0DFF8D88250460AF0FD
:101090004AF9D9F80440D9F814900023B9F1010FA6
:1010A000179319931F9304F14C031593CCBF80231E
:1010B00000231A934FF480731B934FF480631C93A7
:1010C00020231D9350464FF4005315A9CDF85880A6
:1010D0001E93CDF860900AF008F9DAF80030B9F103
:1010E000010F43F00103CAF800306268D8BF002343
:1010F00022F47022C8BF012322F4807242EA032244
:101100006260A368904AA8F118081A4042F460226D
:1011100042F00202A260E36A23F4700209F1FF3395
:10112000DBB242EA0353E3620123BA7A002A5CD0BD
:1011300097F90720002A58D1387A591C0928C9B2D2
:10114000FA7A11D9A0F10A0ED4F80C900EEB4E0EDB
:101150004FF0070C0CFA0EFC29EA0C0C02FA0EF206
:101160004CEA0202E2600EE0D4F810C000EB400945
:101170004FF0070E0EFA09FE2CEA0E0E02FA09F2E3
:101180004EEA02022261062B0ED8013B626B03EB92
:1011900083034FF01F0E0EFA03FE22EA0E0200FA3E
:1011A00003F3134363631FE00C2B0ED8DA1FD4F84C
:1011B00030C002EB82021F2393402CEA030E00FA98
:1011C00002F34EEA030323630EE0A3F10D02D4F809
:1011D0002CC002EB82021F2393402CEA030E00FA7C
:1011E00002F34EEA0303E3620B46063747459CD100
:1011F000A36843F48073A360A36843F00103A36072
:10120000A36843F00803A360A3681907FCD4A3688C
:1012100043F00403A360A3685A07FCD4A36843F413
:10122000A003A36007F0CCFD0446D8B90120014615
:101230000EF0CDF8204621460EF0C9F80524012015
:101240000DF074FE00200DF071FE642014F045F8DE
:10125000013CF4D1204621460EF0B9F80120214688
:101260000EF0B5F80AF0E6F92B6800211B0644BF22
:10127000364A374B374D48BF1A603748102218F0AE
:101280004FFD00242320AC6114F027F820AB03F8B5
:10129000664D05F118007521012207F0B1FB002809
:1012A0007ED02E4B05F11800AB632D4B2146EB632E
:1012B000432385F8443001220DF11B0307F0A0FB06
:1012C0009DF81B3003F07E038DF81B3040B1682B76
:1012D00006D1012385F831301D2385F844305FE0C5
:1012E0009DF81A3003F07E03682B8DF81A3052D126
:1012F000184C0223062185F831300A4615ABAF6B36
:1013000004F11800B8479DF857309DF8592003F0B4
:1013100001035B0002F0010243EA82029DF85530AE
:1013200003F00103134327D05AB2012A01D100234D
:1013300002E0022A18D1012385F8323030E000BFE4
:101340000000002000100240FDF7F1FFE71100202F
:10135000783D0020E0100020C8250020018A000808
:1013600051890008680B002003F00303032BE2D02F
:1013700003200EF089FE13E00CABA76B04F11800FC
:101380000C210122B8479DF8303013F00F03EFD045
:10139000042BD0D1CBE7702B04BF042385F8313068
:1013A0002B6C214C214AC4F8E435214B6B6300239C
:1013B00085F8303095F83130022B21D11D4911606C
:1013C0001D4951601D49D1601D49D161012182F83B
:1013D000301000F0EFBC0423FFF766BA0323FFF7D9
:1013E00063BA114B212283F8AE25BEE50E4B1422C1
:1013F00083F8B425C2E50C4B112283F8BA25C6E563
:10140000042B0DD10F4B13600B4B53600B4BD36070
:101410000B4BD361012382F83030072300F0CABCA4
:1014200001200EF031FE12E090050020E0100020B7
:10143000E8AE01081D8B00085D870008458700089D
:1014400090C1793DEB8F0008002B40F09486BA4F95
:1014500001203B78014643F002033B700DF0B7FFDB
:10146000002001460DF0B3FF0A25039701200DF07F
:101470005DFD00200DF05AFD192013F02EFFAF4B3B
:101480005B68990302D4012013F04AFF192013F07E
:1014900024FF013D002013F043FF15F0FF05E5D1C7
:1014A000284629460DF093FF294601200DF08FFFB5
:1014B000A34BA44F187C17F0FBFCA34917F04CFD7D
:1014C00011F062F9A14B4FF000081860A04BC3F86F
:1014D0000080C3F80480C3F8088012F045FEFF21A5
:1014E0002022384618F01CFC9A493D700D689A4B32
:1014F000012215F002091A700491384606D07A705C
:101500000222BA7004221A701A22FA70934F4FF016
:10151000040A3968DFF82CC24A025FBF1A7802F168
:10152000010E83F800E04FF0140E58BF00F802E0FF
:101530001A7802F1010E5FFA8EFE00F802A015F093
:101540000A0A83F800E00FD04FF0050B0CF80EB03C
:10155000DFF804E202F1030B02328EF800B0D2B2DF
:101560004FF0060E0CF802E0DFF8ECE111F0200F6E
:101570001FBF9EF8002002F1010C8EF800C04FF052
:10158000070C18BF00F802C015F0040F744D04D109
:101590002A68D20611D50A060FD59EF800204FF012
:1015A000030C00F802C002F1020C01328EF800C0F8
:1015B000D2B24FF0180E00F802E011F0800202D013
:1015C000BAF10A0F06D02D68ED061ED5B9F1000F4D
:1015D0001BD0D2B11A7809258554551CEDB24FF0B5
:1015E000080E00F805E0951CEDB24FF0130E00F860
:1015F00005E0D51CEDB24FF0150E00F805E0551DC5
:1016000004321D70D2B216258554554AD2F800E036
:101610001EF0100F0ED01A780A258554551CEDB215
:101620004FF00E0C00F805C0D51C02321D70D2B26E
:101630001B2585541EF0400FDFF81CE14FF00F0909
:101640001FBF9EF80020551C8EF80050192518BFAA
:1016500085541A780B258554551CEDB202F1020C05
:101660005FFA8CFC00F805904D0583F800C009D5A1
:101670003C4D2D7A35B1384D03322A70314A102550
:1016800002F80C500D0348BF9EF80020364D41BFB4
:10169000511C8EF80010112181541A7817218154A1
:1016A000911C01321970D2B21223835400214FF4DD
:1016B00022722E4818F034FB15F084FD2C492D4A77
:1016C00089460023138093702B4A84F87C366A6025
:1016D0002A4AAA602A4AC4F88026CA8A90B2DFF849
:1016E000ACA02849DAF800E0DFF8A4C00EF5967E39
:1016F00021F813004CF823E00133122BEFD1174BE4
:10170000D3F800E01EF4805F08BFB9F81C00C88061
:101710001D4901F1500C11F8023C002B49D10B7806
:101720004878834245D2ABB3013B03EB830303EB21
:10173000830303F5617334E00F420020DC3900209D
:10174000DC300020C611002035FA8E3C2C31002000
:10175000D030002070220020E611002074220020EA
:10176000883900204419002014240020E839002082
:10177000183900204C390020D56B0108D16B0108C5
:10178000A086010020240020423100208037002064
:10179000140C0020013000EB800000EB800000F50D
:1017A000617311F8010CDFF8ACB29BB204302BF876
:1017B000103004316145AED11EF0080F00F0A98051
:1017C00099F8081001290AD9022940F09B800A23C0
:1017D000120192FBF3F20023A2F5B06257E0834AB4
:1017E000834B1560DFF870E28248834A0DD14FF0D9
:1017F000030C8EF800C011704FF0070E0C221A7007
:1018000080F800E042F6F8220AE002218EF800108B
:10181000032101700021117007221A7045F2F05265
:101820005A80764B40206B60754BAB6015F0B0FC76
:101830000590002866D011F006F8002814BF032296
:10184000012299F80A300599002B14BF08230023C0
:10185000834691F902008DE80C004021694A4FF45B
:10186000E13315F043FCC4F8CC06BBF1000F02D005
:10187000654BC3F8D00699F813302978013BDBB2E9
:10188000624A9942137039D80023137036E06049D8
:1018900041F823200133122BF9D12B7042F6F823A3
:1018A0006B805C4B40206B605B4BAB6015F070FC59
:1018B000059038B310F0C7FF002814BF03210121A1
:1018C000834699F8093099F80A20002B14BF0723A2
:1018D0000623002A14BF08220022DDF814C0134397
:1018E0009CF902004D4A0091019340214C4B15F0A8
:1018F000FDFBBBF1000F01D0C4F8D006003018BFCB
:10190000012030B908200DF007FE464B6B60464BB6
:10191000AB60464B1A6842F2010313407BB144F6B8
:10192000206169809104324B03D508211970404928
:1019300004E0D50703D5102119703E4959601006FF
:1019400040F18C803C4D3D4B4FF000096B603C4BAF
:1019500085F811902B603B4BC3F80490C3F80890B6
:1019600015F0C8FCDAF80030484685F813902B6271
:1019700015F012FD2A68344B11780C224A439A5C08
:101980009946022A03D1012015F006FD66E0012ADE
:1019900064D1022015F0FCFB18B980200DF0BCFDCD
:1019A0005CE001796A7C294B13F802E08E4504D093
:1019B0000132D2B2042AF6D900226A746A7C90F904
:1019C000020013F802E02B6802211A780C2303FBB3
:1019D00002935B78002200931D4B019253F82E3046
:1019E00015F084FBA8600028CDD1D6E78C37002005
:1019F0001424002090370020383700204169010866
:101A000065690108116C0108900500208A370020E3
:101A1000943700202D6A01085D6A0108656C010891
:101A2000A0860100D56B0108D16B0108742200204B
:101A3000016C0108F16B0108783D00201E22002096
:101A4000E71100207822002054CC01081005002066
:101A500010CC0108202400208B370020BC4B012231
:101A60001A7000225A709A70DA701A71DA711A724A
:101A70005A729A725A7483F87D2483F8902483F8FA
:101A80007C24B44AC3F82881C3F82421C3F82C214C
:101A9000C3F89C840CF058FEAF4B1A68984612F4B9
:101AA000806F17D0042015F073FB0421C4F8D4060E
:101AB00015F064FB84F8D806102015F069FB10219E
:101AC000C4F8DC0615F05AFB84F8E00610F0C0FFFD
:101AD00010F01EFFA14BA24D1B78022B40F08D8011
:101AE000B5F80090B9F1000F40F087800F23B37173
:101AF0000E231321F371304686F80890C4F8E4668B
:101B00000DF048FA30460DF053FC964A3220138807
:101B100023F040031B041B0C1380138823F03803AD
:101B20001B041B0C138013889BB243F040031380EB
:101B30009F238DF830308DF831908DF832908DF8EC
:101B4000339013F0CAFB30468DF855900DF082FAB1
:101B500004220CA915A80FF011FC30460DF028FC4A
:101B60009DF856309DF855201B0243EA02439DF82C
:101B7000572013437C4A93422CD014D8A2F59122CB
:101B80006FF400710A4493421FD003D8774A9342FE
:101B900019D02DE0764A934215D002F51A4202324E
:101BA000934212D024E0734A93420ED004D8013AF3
:101BB00093421DD1402309E06F4A934205D0013280
:101BC000934207D014E0202300E080232B804FF4C1
:101BD000807302E04FF480732B806B80AB882A887F
:101BE0001B02AB605343EB60012384F8E83604E04A
:101BF00000232B806B80AB60EB60ED682DB3ED0AAA
:101C0000A9464FF0000BAB450CDA0BEB050615AB04
:101C100076101946F0021022059308F0B3F90F2848
:101C2000059B06DC08F052F94FEAC923C4F8EC36EC
:101C30000BE0002253F82210013140F0AA82013259
:101C4000042AF7D1B1463546DDE7D8F800104B4BF2
:101C500011F4002218BF01221A70494B5B78202B27
:101C600001D8202308E0402B01D8402304E0802B3A
:101C700094BF80234FF48073C4F8F036414B4FF487
:101C80007A72A3F84820DAF800203F4B1A603F4AE6
:101C90000023137040F602020A404AB13C4A032175
:101CA00011703C4A012111703B4A13803B4A13805A
:101CB0003B4B01251B68002128223A483B6084F8F1
:101CC000945518F02DF80023C4F8F436364C374AF2
:101CD0002046136015F05EF8354B28461B682946F0
:101CE000642BB8BF6423636415F08AF82946032087
:101CF00015F086F82946052015F082F840F6020115
:101D00003B6804201940003118BF012115F078F814
:101D10002946022015F074F839680620C1F3C01175
:101D200015F06EF8049B07201968C1F3800115F0C7
:101D300067F839680820C1F3802115F061F8039B2A
:101D4000039A1B7863F07F03137021B0BDE8F08F16
:101D5000D41C0020000080BF742200200C42002010
:101D6000200000200038004018BA20001540010073
:101D7000152020001720C2001740EF00B9100020E6
:101D8000101200206C2600209419002090190020C9
:101D9000B03D002022050020B23D0020B43D0020CF
:101DA0000C120020EC38002018030020E838002036
:101DB000C8250020B64FDFF82C83B64A88F80030DB
:101DC0003B689179D07843F001033B6085F82C1093
:101DD000938892F802E0914658B100290CBF7D2308
:101DE0004FF47A730EF1FF3285F82E2003FB0EF3C9
:101DF00002E0A94A82F82E00DFF8ECA2DFF898B2E0
:101E0000CAF8003058462B68984799F800300BB153
:101E10008BF83030A14BC4F8E83599F80730BBB1E6
:101E20009F4AA04B4FF0000BC3F8E8259E4B1C20A7
:101E300000FB0B30543343F82B0099F80710DAF805
:101E400000200BF1010B09F013F8BBF1030FEDD1EA
:101E5000DAF80090DFF860A200213822504617F02F
:101E60005FFFAB69914D0AF1180ECAF8083095E88A
:101E70000F008EE80F0035F8073C8D4DAAF816309C
:101E80006B788C4A032B5370934615D19AF8161031
:101E9000894A022940F07781884B1360884B536050
:101EA000D37D002B0CBF6F236E238AF814300123DF
:101EB0008AF8153003230EE0082B40F060819AF871
:101EC00016207D4B042A20D17E4A1A607C4A5A6033
:101ED00001225A75082388F801303B68764A43F09E
:101EE00002033B604FF480731046AAF80C30DAF816
:101EF0000030039298471FFA89F3CAF8283014F08B
:101F00002FFF2B78039A03B153756F4A92F800A004
:101F100091460AF1FF338BF802A0042B00F20B81EB
:101F2000DFE813F00500050009009A000901BAF185
:101F3000010F40F000810A2013F0CFF94FF0050B9C
:101F40007720A02101220DF11B030FF0B3F9002827
:101F50007AD01E21012277200FF08CF94FF42F60E8
:101F6000002113F0A9F94FF0000CACF160014FF023
:101F7000000BC9B2022215AB7720CDF80CC08DF84A
:101F800054B08DF855B00FF095F99DF854209DF898
:101F90005530DDF80CC043EA0223424A02F24C619C
:101FA0002CF801300CF1020CBCF1100FDDD15B46B6
:101FB000DC46B2F85A164FF0010E01F00F0001F4A2
:101FC0007F41A2F85A162CF001022244B2F84C26A6
:101FD000002A18BF4FF0000E1CF0010F03D0D2B240
:101FE0005340082202E083EA1223FAE713F4004F79
:101FF00018BF83F4C053013A4FEA4303F6D10CF102
:10200000010CBCF1100FDED10143A4F85A16BEF149
:10201000000F04D0BAF1010F40F08D801CE0C3F333
:1020200003339842F6D142F21072284B1A805A803C
:10203000274A5A60274A9A60274ADA60274A1A6173
:10204000274A5A610323F1E00A2013F046F9BBF155
:10205000010B7FF475AFDDE794F85C36002B40F0A0
:102060009680142013F039F94FF0050ADFF834B0E8
:102070007620D02101220BF25D630FF01BF918B11D
:102080009BF85D36582B31D0BAF1010AEED152E0FF
:10209000702200206C110020E01000201F1F01089A
:1020A000C71E0108900500207C0B0020181100209D
:1020B000803800201C050020483800202D870008AB
:1020C000A1870008258700081E1200203811002073
:1020D0003D89000891890008338900087F8900083C
:1020E0009D83000888220020C82500200BF5CC63C2
:1020F0008821182276200FF0DDF8F4213122762095
:102100000FF0B8F80C227620F5210FF0B3F8012378
:102110008BF85C36484B00221A80484A9A60484A3D
:102120005A6045F6D8125A80464ADA60464A1A6121
:10213000464A5A612BE03B6823F004033B60444B62
:1021400000225A616B78012B05BF98F80110414AB3
:102150000023517099F80020012A01BF98F802105D
:102160003D4B197013463D4AD17801297FF46CA983
:1021700098F80330D3700FF00DFDFFF768B9012B0D
:102180007FF4C3AE82E6012B7FF4BFAE97E6042353
:102190004CE006F1010B2E4655E5012001460DF0FD
:1021A00016F913200CF0D0FE074618238371022382
:1021B000C37104721221CAF8F8060CF0EBFE01217B
:1021C00038460DF0FAF83C2013F087F8012021463C
:1021D0000DF0FDF899F81130DFF884A09C42BEF6AE
:1021E0007AA9002001460DF0F2F8384600210DF0E2
:1021F000E4F87820002113F05FF8002001210DF0B1
:10220000E6F8384601210DF0D8F87820002113F0C7
:1022100053F80134DEE706F0D3FD00287EF460A910
:102220008AF811000FF0A3FDFEF75AB988F80230C2
:102230003B6843F0040381E7381100202187000840
:102240002387000847890008A189000859850008EC
:1022500008310020803800201E120020EE110020DE
:1022600018390020000000002DE9F04F9A4BA5B06E
:102270001B68CDE904019C6A984B20461C6016F04F
:1022800017FE974916F068FE964B974F1860974BCC
:10229000DA7898469AB9944D7B682846984790B961
:1022A000E2E0914898470028F5D1914B1D6812F063
:1022B000C1FF049B6335C01A20448542EBDBFB68F9
:1022C000002BEED1F1E78B4EB6F84840002C42D1FE
:1022D000B5F92620B5F92030874E9B1A3360B5F941
:1022E0002820B5F9223095F830109B1A7360B5F9A3
:1022F0002A20B5F9243030469B1AB360B14609F064
:1023000005F97E4D59F8240016F0D2FDF96916F052
:1023100023FE7B4E4FEA840833788246012B04D19A
:1023200017F07CFE774B23F81400774A774B58F868
:1023300002001B685146984733788046022B04D12F
:1023400017F06CFE6F4B23F814000134032C45F892
:10235000048BD7D188E03446374698F801904FF087
:102360000008B6F848A0B5F92000BAF57A7F02BF98
:1023700000233B60E3613B6803443B6016F098FD3B
:10238000E3690133012BE36104D100232061E060A4
:1023900063612AE0D4F80CC008936146CDF818C0F8
:1023A000079016F0CFFC089B8346184616F080FD78
:1023B0000146584616F084FEDDF818C00146604616
:1023C00016F0C2FC0346079A194620611046069390
:1023D00016F0B8FC0146584616F0BEFD616916F0CD
:1023E000B3FC069BA061E36060610023BAF1010FBA
:1023F000EB8424D1E069012807DD013816F058FD8F
:102400000146A06916F05CFE00E0002017F0CCFF4A
:102410008246B9F1000F0AD0484616F049FD014640
:10242000504616F055FF10B14FF47A7315E03B6833
:102430004FF47A7203F5FA7393FBF2F3EB8408F12D
:102440000108B8F1030F05F1020507F1040704F1D3
:10245000140486D1B6F84830013BA6F84830244B26
:1024600000225A609A60DA60294B1B689C0740F191
:10247000DA82284C636820469847A146002800F07D
:10248000CE82B4F90E30E362B4F910302363B4F9AC
:1024900012306363204B5B883BB9204BB3F800A03C
:1024A000BAF1000F00F093823CE004F1280500240B
:1024B0001B4E1C2355F8040F03FB046616F0F8FCB2
:1024C000014630460FF0FFFC17F0A8FD0134032C45
:1024D0002860EDD1E1E700BF14390020DC3D002089
:1024E000BD37863598250020E01000206C110020B3
:1024F000C82500206C260020080D0020CC250020D7
:102500004807002004120020D00B0020780B002088
:10251000702200204838002080380020D810002089
:1025200094380020D9F8347087EAE770A0EBE770A0
:1025300016F0BEFC4FF07F51064616F0C1FDD9F8EB
:102540002C80054688EAE870A0EBE87016F0B0FC35
:1025500004462846214616F0BBFE78B1234B186B83
:102560000028B8BF404216F0A3FC0146284616F0EA
:10257000AFFE18B1002F3BDC012360E04FF07F512C
:10258000204616F09DFDD9F83050834685EAE57067
:10259000A0EBE57016F08CFC81465846494616F0D3
:1025A00097FE50B15846314616F092FE28B1B8F168
:1025B000000FCCBF0223032341E048464FF07F5178
:1025C00016F07EFD2146814616F082FE002800F0BE
:1025D000FE814846314616F07BFE002800F0F78168
:1025E000002DCCBF0423052329E000BF483800207C
:1025F000BAF5C87F22D1B74A0021B74800230B544F
:102600000131062942F8043C1360536002F10C02C8
:10261000F3D1B24A5365583210460021116151611D
:102620009161D16140F823100133042B02F11002B3
:10263000F3D1AB4A136823F4007313600023A64A56
:10264000D25C002A40F0DD8040460A9316F030FC50
:102650000146814616F080FCA04C07900799A06EB9
:1026600016F072FB9F4AA066136B1846069316F08D
:102670001FFC06464846314616F06EFC8346E06E67
:10268000594616F061FBE066384616F011FC054627
:102690004846294616F060FC8446206F6146CDF816
:1026A00024C016F051FB49462067606F16F04CFBC2
:1026B00059466067A06F16F047FB3146A067304669
:1026C00016F04AFC8346E06F594616F03DFB29465A
:1026D000E067304616F040FC0246D4F88000114610
:1026E000089216F031FB3146C4F88000D4F884001B
:1026F00016F02AFBDDF824C0C4F884006146D4F843
:10270000880016F021FB089AC4F888001146D4F816
:102710008C0016F019FB2946C4F88C00284616F0E8
:102720001BFC0246D4F890001146089216F00CFBF0
:102730002946C4F89000D4F8940016F005FB4946E9
:10274000C4F89400D4F8980016F0FEFA3146C4F8A4
:102750009800D4F89C0016F0F7FA2946C4F89C00BB
:10276000D4F8A00016F0F0FA4FF07E51C4F8A000A3
:10277000D4F8A40016F0E8FA5946C4F8A400079863
:1027800016F0E2FA089A114616F0DEFA8346484639
:10279000594616F0E1FB0146A06D16F0D5FA5946F0
:1027A000A065304616F0D8FB0146E06D16F0CCFA75
:1027B0005946E065284616F0CFFB0146206E16F01C
:1027C000C3FA59462066606E16F0BEFA0A9B0C22C8
:1027D00002FB0342D16860664144D16011690698EA
:1027E000BAF1010F0144116151690F44576108D1D9
:1027F000394A022002F803A0636D0133636514F0C7
:1028000031FD364C636D062B40F0DD8004F158023B
:1028100004F168001CA90FF0EFFD4FF07C511C98EB
:1028200016F09AFB4FF07C5116901D9816F094FB11
:102830004FF07C5117901E9816F08EFB00251890D3
:1028400004F1580616AB53F8150017F0E7FB264BBA
:10285000EA180235062D9080F4D1244A0020002188
:10286000116151619161D16146F820100130042855
:1028700002F11002F3D1B3F90420164F0692B3F916
:102880000620B3F9083007920893164B4FF0000A60
:10289000B3F80CB057F8042C4FF4C87092FBF0F268
:1028A000069B3968D21A114E199291FBF0F17A68A1
:1028B0004FEA6A0506EB051892FBF0F208F10C08E6
:1028C000C146079B4036C91A089B1A91D21A1B921F
:1028D0000EE000BF180D0020DA100020080D0020C7
:1028E000883900204838002080380020600D002002
:1028F000002219A951F822000A9216F0D9FA09907B
:10290000584616F0D5FADDF824C00146604616F0A8
:10291000D7FB014616F020FB844659F8040F6146A8
:10292000CDF824C016F010FADDF824C048F8040FE2
:102930003068614616F008FA0A9A46F8040B01322C
:10294000032AD6D104EB0516706F4FF07E5116F0B6
:10295000FBF904EB850570674FF07E51A86D16F00A
:10296000F3F9A865606E4FF07E5116F0EDF90AF1AB
:10297000010ABAF1060F606607F10C078AD1B44864
:102980001CA9A0F110020FF037FD1C9817F00CFDE8
:1029900016901D9817F008FD17901E9817F004FD6B
:1029A0000024189016AB53F814004FF08B4116F02A
:1029B000D3FA17F033FBA74B23440234062C58817B
:1029C000F0D10FF0D4F9A44A1388013B1380A34B34
:1029D000A04AD96AB2F904004FF48054091AB2F936
:1029E0000A00414391FBF4F1B2F90600D962196B78
:1029F000091AB2F90C00414391FBF4F1B2F9080055
:102A00001963596B081AB2F90E1001FB00F292FB20
:102A1000F4F203F12C00597D5A6308F077FD904BD6
:102A2000012283F8A8208E4CDDE90423D4E92C6729
:102A3000C4E92C238B4B894D1B6813F0020F47D040
:102A400094F8A830002B43D0DFF85C928649D9F87F
:102A5000040016F081FADFF854828349C8F80000B8
:102A6000D9F8080016F078FA7F49C8F80400D9F8B8
:102A70000C0016F071FAC8F80800A88916F018FAC8
:102A800001467A4816F01CFB81464FF0000805EB22
:102A90000803D86A16F00CFA494616F05DFA744B32
:102AA00043F8080008F10408B8F10C0FEFD1DDE994
:102AB0000401801B61EB070115F0A8FE62A3D3E9B6
:102AC000002315F0D9FE16F0E9F811F0DDFB03E064
:102AD0000023EB622B636B63664B674E1A79069398
:102AE000002A7DD0654B664D1B6813F0100306D19C
:102AF000ADF87030ADF87230ADF874303DE0614B38
:102B0000B5F908001F6816F0D3F9B7F9541008F0AA
:102B1000F3FEADF87000B5F90A0016F0C9F9B7F97F
:102B2000561008F0E9FE584BADF872001B68D879D2
:102B300016F0BEF9554916F00FFA0746B5F90C0024
:102B400016F0B6F9394616F0FFF8514916F004FAB6
:102B500039468046384616F0F7F80146404616F0EA
:102B6000AFFA4B4916F0EEF84A4916F0EDF800F1CD
:102B7000004016F0B7FBADF874002B88F78AADF86B
:102B80007630454B1868454B00F48050B3F800E0B0
:102B9000EB7903EB83010023414A5D182A44527804
:102BA000012A0BD005D3022A16D11CAA32F81350E1
:102BB0000FE0069A02EB4302558D0AE0032B394AD7
:102BC00001D0002506E000280CBF75463D46D580A3
:102BD00002E0344A22F813500133042BDCD1DFE049
:102BE000294BDFF8CCA0D3F800B0DFF8C8909BF8F1
:102BF00002309AF8008019464246B9F90000049361
:102C00000EF074FC274D049B424619462880074667
:102C1000B9F902000EF06AFC68809BF80910804642
:102C20009AF80120B9F904000EF060FCB9F9061019
:102C3000338B40429942A8803EDBB1F5FA6FA8BFC2
:102C40004FF4FA6139E000BF8DEDB5A0F7C6B03E94
:102C5000700D002080380020D81000204838002057
:102C6000080D00207022002035FA8E3C8F2A754412
:102C7000D03000204C39002018390020883900203D
:102C800030310020882500209425002000002041BC
:102C900000007A440000FA43742200204E260020EF
:102CA0005CBF01088C250020C8250020C43000200E
:102CB000D2310020202400201946C91A4FF47A721C
:102CC0005143C3F5FA63B1FBF3F14FF0640991FB93
:102CD000F9FC894A6FF0630303FB0C1332F81C0004
:102CE0000CF1010C32F91C1002B28A1A5A4392FB01
:102CF000F9F306990344C978DFF824E2EB807F4AB0
:102D0000002942D07E4B1B68580649D57D4B0A20CE
:102D1000B3F9043093FBF0F0B4F8B830C01A00B245
:102D200016F0C6F8784916F017F981460FF02CFD19
:102D3000824648460FF0B4FC8146404616F0B8F88B
:102D40008046384616F0B4F85146834616F004F92A
:102D500049460746404616F0FFF80146384615F04A
:102D6000F1FF16F0BFFA51462880404616F0F4F8FD
:102D700049460746584616F0EFF80146384615F022
:102D8000E3FF16F0AFFA68800AE0BEF80010138681
:102D90005185BEF802109185BEF80410D185B1E7C7
:102DA0000EF006FC96F82030DFF87491002B66D008
:102DB000564B574D1F7894F8BA304BB9554B05F127
:102DC000BC001A68012108F053F8012385F8BA30D5
:102DD000514B4F4E186816F06BF8014606F1BC00D7
:102DE0000FF071F84D4B5D8816F07CFA95FBF0F012
:102DF000451CADB2A4F8D85007B3B6F9DA80002369
:102E0000434E474A06F1E40732F813E037F813203F
:102E100006F1DC0CC2EB0E0A3CF9132027F813E094
:102E200008FB02F12AB291FBF2F252442CF8132073
:102E30000133042BE4D1A6F8DA0004E0B6F8DA3066
:102E4000013BA6F8DA30B4F9DA00314A00284FF035
:102E5000000312DDB2F9D8503249A1F1080232F96B
:102E6000132031F81310424392FBF5F28A1A29F825
:102E700013200133042BEFD101E0A2F8DA30234B09
:102E8000294E1F780493002F00F0EE81274B284D28
:102E90001A68984612F0040F0AD12B7A002B5BD0E7
:102EA00005F58070D5F81811072213F0DBF953E00F
:102EB000152011F0EFFF00283CD094F8EC30002BE7
:102EC0003BD041F2100A0E4B1B6803EA0A0ABAF122
:102ED000000F32D12B7A83B3336805F5807013F07D
:102EE000010FD5F8181114BF0522072213F0BAF903
:102EF00084F8ECA021E000BFBA3100204C3900205A
:102F00009C250020F43D002035FA8E3C4D14002015
:102F1000080D0020C8250020DC3D002014240020DE
:102F20008C250020EC0D002088390020E43D002095
:102F3000D41C0020012384F8EC303368D9070BD56A
:102F4000B24813F035FAC5F8A401B04813F0BAF945
:102F5000C5F8A80113F06CF9AD4BD8F800201B6838
:102F60005207D4F8F000C4F8F03010D5181A15F054
:102F70009FFFA84915F0F0FFD5F8301115F0ECFFD0
:102F80000146D5F89C0415F0DFFEC5F89C042B7AA9
:102F900063B13368D90709D594F8F43033B90E20FA
:102FA00008F024FC9C4B012283F8F420AB7B33B166
:102FB000162011F06FFF10B9984B0122DA7316201A
:102FC00011F068FFA873182011F064FF28740BF04B
:102FD000BBFC13F0E5FB2A78914B1C2101FB02336B
:102FE000B3F80A8018F4006F56D08E4B1B685A0550
:102FF00052D433688C4A13F0100F8C4B23D092F8C4
:1030000003A0B3F9020051460FF0A8FA80B298B1BC
:10301000874B00B29B8A4042584315F049FF8346D4
:10302000504615F045FF0146824815F08BFE0146DB
:10303000584616F045F82AE02B7B73B30020002198
:1030400013F014F828E07C4992F803B0B1F900A01D
:10305000B3F906005946CAEB00000FF07FFA80B2C0
:103060000028E9D0724B00B2744A9B8A0028CCBF7A
:103070005188118803FB00F0CCBFCAEB0101C1EB02
:103080000A01CBEB010190FBF1F015F011FF0121DA
:1030900012F0ECFF3B4600E0002318F4805F2B7336
:1030A00000F091805F4B1B685B0500F18C803368FA
:1030B00013F0100F5C4B0BD0B9F9000099780FF0AA
:1030C0004DFA00B210F1000918BF4FF0010976E087
:1030D00093F802A0B9F9020051460FF03FFA5146A9
:1030E0001FFA80FBB9F900000FF038FA1FFA80F9D7
:1030F000BBF1000F02D1B9F1000F51D04C4A9378C7
:10310000012B58D1558A0FFA8BF06843CAF5FA7A29
:1031100090FBFAF0099315F0CBFE83460FFA89F085
:10312000684390FBFAF015F0C3FE3C4D8146D5F89C
:10313000202158461146089215F00EFFD5F81CA123
:1031400007905146484615F007FFDDF81CC00146C0
:10315000604615F0F7FD696915F0B2FF0146D5F834
:10316000000115F0F1FD5146C5F83401584615F03F
:10317000F3FE089A82461146484615F0EDFE0146D8
:10318000504615F0E1FDA96915F09AFF0146D5F802
:10319000040115F0D9FD099BC5F8380199460EE0E8
:1031A000E87A58B11CA814F035FB1CA84946012246
:1031B00013F0B6F803E04FF0010900E08146174B29
:1031C00083F80B9001E00023EB7218F4005F134DBD
:1031D00036D0144B1B6813F4806231D1336813F07E
:1031E00010030ED1114A1049B2F904208978002A3F
:1031F000B8BF52428A4206DDD5F81831C5F84C31C5
:1032000002E0174600E01F466F731BE0581E0020C7
:10321000803700206F12833A080D0020D41C002054
:10322000D4B601089C250020D23100208C25002036
:10323000D02100200000FA43180000204E26002074
:1032400000236B732A788A4B1C2101FB02339F8970
:1032500041F2B800FB43184011F06CFD384611F004
:1032600079FD2B78A4F8F630049A94F8F8500023EE
:103270001370DFF81CB2002D3DD17E4B7E49186BD8
:1032800015F062FD00220023CBE90023CBE90A23DD
:10329000CBE90E23CBF898000023CBF89C002946FD
:1032A0004FF496720BF1B400CBF8A030CBF8A430F9
:1032B000CBF86430CBF88030CBF88C30CBF868306A
:1032C000CBF88430CBF89030CBF86C30CBF888302A
:1032D000CBF894308BF8B0508BF8705016F020FD7E
:1032E0004FF496720BF5F070294616F019FD634BFA
:1032F000012283F8F82011F09DFFCDE9040109F0C7
:103300005BF968B90023CBF85830CBF85C30CBF8C8
:1033100060305B4B8BF870001B68C4F8FC30D3E066
:10332000584DDBF86410286815F00CFDDBF86810C8
:103330008246686815F006FDDBF86C108146A868C7
:1033400015F000FD504D8046A969504615F004FE69
:10335000E9690746484615F0FFFD0146384615F075
:10336000F3FC296A0746404615F0F6FD014638464B
:1033700015F0EAFCE9680746504615F0EDFD2969AD
:103380000790484615F0E8FD079B0146184615F0E2
:10339000DBFC69690790404615F0DEFD079B01469E
:1033A000184615F0D1FC296800F1004350460793F8
:1033B00015F0D2FD69688246484615F0CDFD0146FC
:1033C000504615F0C1FCA9688146404615F0C4FD81
:1033D0000146484615F0B8FC079BCBF85800CBF8DF
:1033E0005C302A4BCBF860701B68294D13F0040F3A
:1033F00031D195F8703073BBDFF89C903846D9F81E
:1034000004A0514615F09EFC2249804615F0A4FD0B
:103410000146504615F098FC0021C9F804004046CA
:1034200015F038FF08B108F10048124B987815F0F4
:103430003FFD0146404615F02DFF114B1B6840B182
:10344000D4F8FC209B1AFA2B05D9012385F870309B
:1034500001E0C4F8FC3095F87030DFF83480EBB14F
:103460000D4B3846596815F06DFCC8F860001CE03B
:10347000D4B60108201200206F12833A080D0020F4
:1034800080370020D0300020A0250020E43D00201F
:10349000A01900200AD7233B180000200023C8F8F9
:1034A0005830C8F85C30C8F86030A86D15F01AFFC5
:1034B000A4F80001E86D15F015FFA4F80201286ECC
:1034C00015F010FFA4F80401B44FDDE904010FF07A
:1034D00067FBB7F904000A235843B14DC5F818013A
:1034E00015F0E6FCAF4915F0EBFDAF4915F034FDE2
:1034F00080460FF0D5F8C5F81C0140460FF044F99E
:10350000DFF8CCE2C5F82001DEE90023DDE90401A3
:10351000801A61EB03010B46024644F61F6000214E
:1035200099424FF0010808BF9042079785F8048040
:103530009E4F80F09B80DFF89C92DFF89CA2CEE942
:103540000223DDE90423D9F89800CEE90023DAF854
:10355000301015F09FFE50B1D9F8903040460093DE
:10356000D9F88010D9F88420D9F88C3005E00023F0
:103570000093D9F88010D9F8842013F01FF8D9F8F7
:103580009C00DAF83010DFF84C8215F083FE28B189
:103590000120D8F88810D8F8942002E0D8F88810D4
:1035A000002212F0D5FFD9F8A0A0D9F8A41099F8FC
:1035B000A8307B4AC5F824A1C5F828111BB1012108
:1035C0005172D17001E05372D3703A6850071CD524
:1035D000F3B1D5F824810021404615F079FEB8B149
:1035E0006F4B0021D3F82CB1584615F071FE40B155
:1035F0005846414615F04EFE00B9C346C5F82CB1F9
:1036000006E0674BC3F82C8102E0694BC5F82C310A
:10361000504615F067FE99F8B0304FF00C0E0EFBD7
:10362000039EDFF8B0C10133DBB20CF18002182B2E
:103630000EF1B40888BF00230EF5F07EA4F818013F
:1036400007CA88E807000CF18C0207CA8CF8B03072
:103650008EE80700D9F8980015F06AFEA4F81A0160
:10366000D9F89C0015F064FEA4F81C0111F0E2FDED
:103670000023A4F81E31EB7980468A461BB14D4ADF
:103680000121A2F81E116A7A2AB1B4F81E2142F073
:103690000202A4F81E212A7A2AB1B4F81E2142F0AF
:1036A0000402A4F81E21AA7A2AB1B4F81E2142F01D
:1036B0002002A4F81E21326822F0800131603968AE
:1036C0003D4F11F0040101D1697486E10020687159
:1036D000A87195F800E039484FF01C0C0CFB0E0067
:1036E00012F010022E49B0F80A9005D04846424622
:1036F00053460AF029FB1AE119F0080F70D02D4843
:10370000D4F820E1C0F824A1C4F820813A807A805E
:10371000BA80002B3ED02A4ACEEB0803934206DD46
:10372000C0F82881C0F82CA114F0C8F9FFE08B780C
:10373000DFF8A890F3B1D0F82831C0F82CA1C3EB82
:10374000080B204BC0F828819B450FDCB9F81C0002
:1037500015F0AEFB012100F1004012F087FC584645
:1037600014F03AFA584614F0E9F901E014F0A6F919
:103770000123AB71B9F926201349B5F998341344E4
:103780000A884988934203DB8B42A8BF0B461A463E
:10379000FA80CCE00D4B1B88FB80C8E0F43D002094
:1037A000D41C00200000C84235FA8E3CE43D0020C5
:1037B000000080BF080D00208C250020D4B6010831
:1037C000400D03003F0D03004E2600203031002045
:1037D000100E0020A019002020120020D02100206F
:1037E00019F0010F3DD0D4F830219648964BC2EB2A
:1037F00008028242C4F83081C3F834A106DDC3F860
:103800003881C3F83CA114F059F92AE08A78AAB1AA
:10381000D3F83821C3F83CA1C3F838818B4BC2EBF5
:10382000080B9B4506DC584614F0D6F9584614F0B0
:1038300085F901E014F042F90123AB71844B85490D
:10384000B3F92620B5F998341A440B8849889A426E
:1038500003DB8A421346A8BF0B469BB2FB80A4F849
:10386000403119F0020F57D07B4AD4F84831C2F8E2
:1038700004A0774AC3EB08039278C4F8488112B9D0
:1038800095F80BB001E04FF0000B6E4A934207DD54
:10389000724BC4F85081C3F804A014F0EDF83BE07B
:1038A0002A7A6F4BDAB15B78F3B16C4BD4F85021C4
:1038B000C3F804A0C4F85081BBF1000F0CD1634BD6
:1038C000C2EB0808984505DC13F0C4FF404607F03A
:1038D0009DF901E014F0D0F801236B7104E0A3F826
:1038E0009424A3F8922417E0BBF1000F14D15D4B90
:1038F000B5F99404D3F8008015F0DAFAB8F9561047
:1039000007F0FAFF7880B5F9920415F0D1FAB8F90A
:10391000541007F0F1FF388019F0040F1FBFD5F8DD
:103920004C31642293FBF2F34F4A18BF13806B793A
:1039300013B14B4B00225A70AB7913B1484B0022A4
:103940009A70EB7A2BB1B4F81E3143F04003A4F81F
:103950001E312B7B2BB1B4F81E3143F08003A4F849
:103960001E316B7B2BB1B4F81E3143F48073A4F885
:103970001E31D5F8340147F6FF7916F04FFB484564
:10398000A8BF4846DFF804814045B8BF4046A4F8C8
:103990005801D5F8380116F041FB4845A8BF484604
:1039A0004045B8BF4046A4F85A01D5F83C0116F08E
:1039B00035FB4845A8BF48464045B8BF4046A4F837
:1039C0005C01D5F8500116F029FB4845A8BF4846D0
:1039D0004045B8BF4046A4F85E01244B1B78BBB1FC
:1039E000234BB3F90620234B1B8B9A4210DC224B4E
:1039F0001B78012B01D0192B02D1204A527A3AB9F7
:103A00000E2B05D003F0EF03082B1CBF0023BB8057
:103A1000336813F01003049340F08A802A78184B1F
:103A20001C2101FB02335B89D90531D4154B5B7A2C
:103A3000002B7DD0144A1268920779D01FFA83F8C0
:103A400028E000BF400D0300080D00203F0D0300DB
:103A5000D02100204E260020500E0020580E0020BD
:103A6000D41C002088250020D82500201403002025
:103A70002024002018390020642600201412002081
:103A8000D4B60108BC1000209C2500205A80FFFFFE
:103A90004FF06408A64BDFF8B0A2D3F82090A549F8
:103AA0004846BAF80050B7F806B015F0F3FB002806
:103AB00040F0A88748464FF07E5115F009FC08B148
:103AC0004FF07E59284615F0F3F908900FFA8BF065
:103AD000401B15F0EDF9494683464FF07E5015F036
:103AE000EFFA4FF07E5115F02DF98146404615F062
:103AF000DFF9914915F0E4FA0146484615F02CFA31
:103B00004FF07E5115F020F90146584615F024FA81
:103B1000089A0146104615F017F915F0E3FBA84284
:103B2000BAF8023003DB9842A8BF18460546FD806C
:103B3000FA88B4F8603117B29F4218BF7F49804BB2
:103B40001EBFA1F8602101221A701B78002B00F023
:103B500010817C4B049A1B68002A45D093F808809A
:103B6000B8F1000F59D01888774B1D88A84254D956
:103B7000AF4222DD401B15F09BF98146781B15F002
:103B800097F90146484615F09BFA4FF07C5115F025
:103B9000E3F94FF07C5115F0D7F84FF07C51054612
:103BA00015F078FB30B928464FF0804115F090FBB6
:103BB00028B102E04FF07C5501E04FF080454FF016
:103BC0007E51284615F0BEF80546404615F070F9BE
:103BD000594915F075FA0146284615F0BDF94FF020
:103BE0007E5115F0B1F816E0187AB0B11A889742F4
:103BF00013DB554B59888F42BFBFBB1A4343501A42
:103C000093FBF0F0ACBFC0F16400643015F050F9E4
:103C1000494915F055FA804601E04FF07E58336867
:103C20004A4F03F0100304934FF00009049B4FF038
:103C3000000A4FEA49055BB307F0A8FE4D44405D1A
:103C400015F036F9424915F03BFA414615F084F972
:103C500047F8040C07F09AFE2844407815F028F93C
:103C60004FF07A5115F078F9414615F075F9C7F81B
:103C700004A0386007F08AFE2844807815F018F90F
:103C8000334915F01DFA414615F066F9B86063E056
:103C9000B9F1020F14BFC3464FF07E5B07F076FE0A
:103CA0004D44405D15F004F9294915F009FA5946CB
:103CB00015F052F947F8040C099007F067FE284404
:103CC000407815F0F5F84FF07A5115F045F9386065
:103CD000089007F05BFE2844807815F0E9F81D494C
:103CE00015F0EEF9594615F037F9C7F808A07860D5
:103CF000834607F04BFE4119405D089A099B58B373
:103D0000497849B311461846089315F0D9F9089B2C
:103D100005461946584615F0D3F90146284615F0D0
:103D200013F801464FF0804015F0CAF9F86015E02D
:103D3000A02500209A99193F0000C842080D0020D4
:103D4000B8100020942500204E2600204824002092
:103D50000000F8410020EE44C7F80CA009F1010969
:103D6000B9F1030F07F16C077FF460AF834B0022BA
:103D70001A7007F0C1FE3368814813F0100F814DAF
:103D800009D0814B1B68DE0505D5804AB2F800904A
:103D9000538897881CE07E4AB2F800905388978831
:103DA0002A78032A14D94688B6F5FA7F10D2774AC2
:103DB0000FFA87FEB2F9041072420029B8BF4942D7
:103DC000571ABE4503DB77187745A8BF7746BFB2C1
:103DD000002695F800B0B246354690F901203FB272
:103DE00052425743DFF8CC815E4539DA18B2089366
:103DF00015F05EF8D8F8081015F0AEF804900FFA38
:103E000089F015F055F8D8F8041015F0A5F8049AC3
:103E10000146104614F098FF0490384615F048F813
:103E2000D8F80C1015F098F8049A0146104614F0D2
:103E30008BFF15F057FA1CAA80B222F8160029B29F
:103E400002B28A42089B04DC0FFA8AF18A4202DB42
:103E5000284605465046013608F110088246C3E759
:103E60004C4BCAEB05051A68089312F4805F1FFAE1
:103E700085FA494A454B33D04849DB8809680493A1
:103E800011F0040F464B47499B8808BFC88AC98A6E
:103E9000BDF91050A1EB030608BFA4F86201B542BA
:103EA000414803DCB0F80080168805E00B449D42D1
:103EB00007DBB2F802804688BDF81030A4F8623102
:103EC00013E0B4F96231B342D7BFB0F8008046883E
:103ED0001688CDF81080C4BFB2F80280049604E0C2
:103EE000DB881688B2F802800493C6EB08050FFA47
:103EF0008AF90FFA85FAD1452C4A5DDD012313704A
:103F0000504614F0D5FF0746484614F0D1FF01464D
:103F1000384615F0D5F8814600255D450FDA0DF1DC
:103F2000700838F9150014F0C3FF0146484615F033
:103F300013F815F0D7F928F815000135EDE73846E4
:103F40001B4915F009F84FF07C5115F005F80225D2
:103F50009AFBF5F5074630B2284414F0A9FF39461C
:103F600014F0F0FE15F0BEF986B230B2284414F019
:103F70009FFF394614F0E8FE59E000BFB81000205A
:103F800064260020202600209C2500208C2500206F
:103F9000E8250020742200204E260020E43D002069
:103FA000D231002018390020482600202126002088
:103FB000C3F5A83EC40A002000211170504614F039
:103FC00077FF834914F0C8FF4FF07C5114F0C4FF11
:103FD000022799FBF7F59AFBF7F7814636B2F019FD
:103FE00014F066FF494614F0ADFE8246701914F0D5
:103FF0005FFF5146064615F04DF900B9564630466A
:1040000015F070F986B230B2384414F051FF4946C9
:1040100014F09AFE07460FFA88F0401B14F048FF90
:104020003946054615F054F900B93D46284615F0C5
:1040300059F9684B1FFA80F91B6813F0040300F06C
:10404000AA80069BDFF8C0E1DB78BEF81610069365
:10405000089B4FF000081F68B4F962315E4C08936A
:104060005E4BB4F804A09B882588CB1A09935C4B5F
:1040700089B21A880E910A925A886388594C4FEA7D
:104080004B01E07907F4805C10902088564C119029
:10409000246807F0100704F08000544C0B90B4F92A
:1040A0000600534C0C90BEF8180012910D901FFAA8
:1040B0008AF00F901299884566D01CA9BDF91000AE
:1040C000CDF854C01493139238F801B014F0F0FEF8
:1040D000484951F8381014F03FFF15F003F931B298
:1040E00013AA884292E80C1004DB0FFA89F181428E
:1040F000A8BF01468B4406991FFA8BFB24F802BF28
:104100000FFA8BFB51B1D34503DB9B45A8BF9B4600
:1041100000E0D346A4F800B0EFB932E0BCF1000FE4
:104120000ED008990998814206DCAB450EDB0A994E
:104130008B45A8BF8B460AE0934503DA934606E019
:10414000AB4503DB9B45A8BF9B4600E0AB46A4F80C
:1041500000B037B915E0109931B91199A94203D2CD
:1041600008E00B9931B901E0069951B90C990D9805
:10417000814206DA0F990E98BCF1000F18BF014674
:10418000218008F1020895E71B4B1A780893002A52
:1041900000F0DD8109E05B45F6DA184A32F81310C9
:1041A000174A22F813100133F5E7164B16481B681F
:1041B0000493164B1A680D4B12F4807F2AD01449D1
:1041C0000C88ADF870404C888988ADF8724035E0B5
:1041D000C3F5A83EE43D00204E260020D231002049
:1041E000482600203031002088390020202400207B
:1041F00020260020C40A002047080020582600205E
:104200002226002098250020183900209C25002017
:104210008C250020BC490C88ADF870404C888988FA
:10422000ADF87240B94CADF874102468E40407D5B9
:10423000B3F90650C48AA54202DA4942ADF87410B7
:1042400012F4804218BFB24A4FF47A7118BFD28874
:104250004FF46164ADF88C20079AB2F9022002F5A0
:10426000E1624A4392FBF4F2A2F5FA72ADF88820BB
:10427000079AB2F9002002F5E162514391FBF4F193
:10428000A44AA1F5FA711288ADF88A10A2F2DC52A4
:104290001988ADF87620C28A891AADF87810598845
:1042A000891AADF87A109988891AADF87C10D988E6
:1042B000891AADF87E101989891AADF880105989CC
:1042C000891AADF882109989DB89891A9A1AADF892
:1042D0008410ADF8862000238F4E002226F813208C
:1042E0000133082BF8D18D4B8D4D1B788D4F05EB8D
:1042F00083030693069B8C4C9D425BD015F801AC62
:1043000024AB03EB4A0333F9200C14F0D1FD6B7896
:1043100080460A20584314F0CBFD002115F8029C7A
:10432000834614F0D5FF20B35846049914F014FEC8
:104330000246D7F804C011466046CDF824C0079263
:1043400014F000FD83464046594614F0A3FF68B9B7
:10435000DDF824C0079A6046114614F0F5FC834648
:104360004046594614F0B4FF00B9C346C7F804B03C
:1043700001E0C7F8048057F8040F14F0B3FF0C22D3
:1043800002FB09F20123A25803FA0AF3134215F9BA
:10439000043B00B203FB00F014BF4FF0FF320122D8
:1043A0005043642390FBF3F036F81930184426F894
:1043B00019009FE7A046584F0025B7F9003098F93B
:1043C0000A004FEAC50A5843642390FBF3F080B219
:1043D000388000B20028DFF8609104DD14F068FD39
:1043E00059F8351004E0D14414F062FDD9F80410F6
:1043F00014F0B2FD14F076FF3880E8B207F060FAEE
:104400003B88B8F806201844B8F9043000B2984246
:1044100003DB13B28342A8BF03460135082D27F8FA
:10442000023B08F10C08C8D11B2010F033FD3F4DB2
:1044300095F8A431002856D0012B23D002D3022BAB
:104440007CD084E03A4B1B685B0740F180800223FC
:104450000C2202FB03423549128901F5D37020F882
:10446000132001F5DC70002240F823200133062BD5
:10447000EED1304BC1F8DC211B68C1F8D8310123E3
:1044800081F8A4312A4B1B685F073BD5D5F8DC01C6
:1044900002230130C5F8DC01244F36F9131007F56B
:1044A000DC7252F82350294442F823100133062BC2
:1044B0001546F1D11F4BD7F8D8211B689B1AB3F5CD
:1044C0007A7F44D9022355F823100C2291FBF0F196
:1044D00002FB03420133062B1181F4D1134B02225C
:1044E00083F8A42133E0022B0CD1B5F8AA31238440
:1044F000B5F8AC31A385B5F8AE312387B5F8B03146
:10450000A4F84430002320E0E82500207422002095
:104510001412002022260020281100203023002021
:1045200035230020680E0020B4230020080D002051
:10453000E43D0020803700204C080020A34B1B687E
:104540005E0704D40DF013FC032385F8A431A04DBD
:104550002B689C0644D5002007F0B2F99D4C074615
:104560002080012007F0ACF906466080072010F09B
:1045700091FCA8B3984B994993F8E031DFF86CC2ED
:10458000012B19D19CF90A00B1F902304042B1F96E
:10459000002058439CF916304FF0320E53436FF011
:1045A000310190FBFEF093FBF1F193FBFEF301442C
:1045B0007A1A2280184411E09CF90A20B1F90230DD
:1045C0004FF0320E534393FBFEF3FA1822809CF90E
:1045D0001600B1F90020504390FBFEF0304460809B
:1045E0007F4B1B683BB97F4B1B78002B00F09E80F4
:1045F00007F032FF9AE07C4EB6F9043013B97B49DC
:10460000002330E0744F97F8E14107F5F27764B981
:10461000774B3819B1881A681C3406F029FCE02C55
:10462000F6D16D4B012283F8E1210024DFF8A4913B
:104630004FF01C0839F9140014F03AFC08FB047818
:10464000014640460DF03FFC14F04CFE29F81400E2
:104650000134082CEAD1D2E70133082B20F80E20D0
:1046600001F10C0111D05B48B1F9042030F913407D
:104670004FEA430E9442B1F806C00746ECDB0FFA4E
:104680008CF2A242A8BF2246E6E75A4B1B78012BC8
:1046900001D0192B0AD14D4B1B68580706D496F848
:1046A0000980B8FA88F84FEA581801E04FF000087E
:1046B000089B1C78CCB1504B1C78B4B14F4B0026F2
:1046C00093F800904E4A06EB090312783446934261
:1046D0000BDCF0B2B8F1000F01D0002101E037F897
:1046E00013100AF017FC0136ECE72B68990609D580
:1046F000E0B2661C39880AF00DFCF0B27988023409
:104700000AF008FC2B68DA027FF56DAF3D4FE4B28A
:104710000026A019C0B237F8021F0AF0FBFB0D2ECD
:1047200006F101033FF45FAF1E46F2E7364B93F804
:104730000090B9F1000F40F069812B681B0340F134
:10474000658110F077FD314C064623780F46033B18
:10475000052B1FD82E4BDFF880809B7833B1012BBF
:1047600009D105F0C5FAC0F17F0005E0D8F8C40210
:1047700010F02DFF00E04846264A98F8C81213684A
:104780000B44B3F5807FA8BF4FF480738342D4BF3E
:10479000136010602378023B092B00F22D81DFE8C3
:1047A00013F00A003F0077009600AB00C200D30070
:1047B000E100FF000C01174B00221A60164B1A6033
:1047C000164A12685A60032315E100BFE43D002039
:1047D0007422002028110020080D0020F43D002044
:1047E00048080020240B002014120020B4230020CD
:1047F000C82500206426002030230020312300201B
:1048000032230020262400200D420020B910002071
:1048100010120020FC0C0020F40C00208037002037
:104820007C4B7D4A1968536816466433994240F2BE
:10483000E380402012F0BAFD002840F0DD804025E2
:10484000764B3268DFF8D081985C1F4670B112F069
:104850006DFE734A013D136803F1FF331360D8F80E
:10486000003003F10103C8F80030E9D133686A4D24
:10487000FE5C002E40F0C0806A4B6B481A686B49A2
:1048800012F02DFF4FF0FF336B602E600423B2E077
:1048900041230093664B492003F10C0201930292DD
:1048A0005021A3F10A02023304F04EFD002840F02B
:1048B000A3802B684FF0FF3113F08002564B03D0DA
:1048C00083E80300052396E01A60596029E0594AFD
:1048D00002230021009301910291482002F1080374
:1048E00004F032FD002840F087804B4B4FF0FF3240
:1048F00018605A6006237EE00B2300934E4B47203E
:1049000003F10C02019302920021A3F10802043387
:1049100004F01AFD00286FD13F4B4FF0FF321860B2
:104920005A60072367E0454A06230021009301915E
:104930000291532002F1080304F006FD00285BD128
:10494000354B1860082356E004F03CFF002853D094
:1049500012F070FD00284FD0394B4FF480521A806E
:104960000A2348E0112010F095FAB0B1354BB3F8A6
:10497000CA2292B9D3F8CC320E201CA91C93CDE9DF
:104980001E6710F04FFE2E4B4FF480521A800A2300
:1049900023703046394610F09DFE10F01FFE2BE0CC
:1049A000284B93F8D032002BF3D0112010F072FA7C
:1049B0000028EED109232370EFE7164B1A68164B37
:1049C0005B68C8339A4203D91F4B9E7896B904E0BE
:1049D00012F030FD0028F7D10EE01A4DD5F8C402D0
:1049E00012F05BFB95F8D132C5F8C462022B01D1FD
:1049F00012F0E8FB0123237012F006FD30B1012311
:104A0000237003E0DFF84490FFF75CB825B0BDE801
:104A1000F08F00BF80370020F40C002018AF010891
:104A2000FC0C0020800C0020BCCC0108FCD7010845
:104A300072AF010874B201088CB2010808B3010812
:104A4000F00C0020080D0020101200209A99193F48
:104A50002DE9F04FB74D97B02F78002F73D0B64C9B
:104A60002068002801F005840AF0CDFC6068B24E91
:104A700010F0B0FD002801F0FC83706810F0A4FD78
:104A8000092801D03F2851D14FF000094E46D4F8F3
:104A90000880AA4FB8F1000F05D0A94839684246EE
:104AA0000DF046FA10B9B94606B93E46A54B08378F
:104AB0009F42EFD3D6B1D6F800E0D9F800C0A36882
:104AC0009D4A1EF803701CF80300B8420ED1591C11
:104AD00040B93D2B06D81344916020270A441F7328
:104AE000107303E023441F73A160E8E7A3680BB1D0
:104AF0004E4510D094480AF0C7FE4E4507D856F8E8
:104B0000080B0AF0C1FE09200AF0ACFEF5E70AF036
:104B1000D1FE4FF00008A3689845A7D2884B13F840
:104B200008000AF09FFE08F10108F4E7B368002BC3
:104B300041F01C83042841F0758306F10C0008F055
:104B4000CDF901F096BB814B814C1B6803F0040347
:104B5000019354F8053C002B01F0F48254F8050C45
:104B600010F038FD002801F0ED8254F8050C10F02B
:104B70002BFD14F8013C0546013B0B2B0DD8DFE85B
:104B800013F014001F002B00380069007F00820022
:104B9000AF00CD00EB0012012A01242840F0238150
:104BA000002384F8CB30012307E04D2804D0582897
:104BB00040F01781032300E0022304F8013C44E1A4
:104BC0003C284FF00003F8D1C4F8C33084F8CF304C
:104BD00084F8D0300423F0E73C284FF00003ECD1F8
:104BE000C4F8C33084F8D030022384F8CB300A23D1
:104BF000E3E7D4F8C310D82303FB07134A1C554935
:104C0000C4F8C3200B44587194F8CF30022A85EAC7
:104C1000030584F8CF5040F018812378C02B00F2B0
:104C2000E0806278FF2A07D1052B40F2DA80012369
:104C300084F8CB300723C0E7A4F8CD2000229342AC
:104C4000C4F8C73084F8CC20C4F8C32014BF0523AF
:104C50000623B2E7D4F8C310D82303FB07134A1C7A
:104C60003C49C4F8C3200B44587194F8CF305D40E0
:104C7000D4F8C73084F8CF509A4240F0E68056E02E
:104C800094F8CF30A9E0D4F8C320D82303FB07233E
:104C9000561C304AC4F8C3601344587194F8CF309E
:104CA0002946434084F8CF3094F8D0000DF0A8FD99
:104CB000072E84F8D00040F0C880B4F80320B4F880
:104CC0000530A4F8CD20A278C4F8C73084F8CC20F1
:104CD00000229342C4F8C32014BF082309236CE7C1
:104CE00094F8D00029460DF08BFD94F8CF30D4F81D
:104CF000C3106B4084F8CF30D82303FB07134A1C42
:104D0000144984F8D0000B44C4F8C3205D71D4F872
:104D1000C7309A4240F0998009234EE794F8CF308B
:104D2000434084F8CF3094F8D030834259D10623E1
:104D300043E700BF0D420020DC0F002038B301081C
:104D4000E80F002018B4010875CE0108E43D0020EA
:104D5000ED390020E8390020D4F8C320D82303FB24
:104D60000723561CAF4AC4F8C3601344587194F823
:104D7000D00029460DF044FD052E84F8D00064D102
:104D8000B4F80120B4F80330A4F8CD202278C4F898
:104D9000C73084F8CC2000229342C4F8C32014BF4B
:104DA0000B230C2309E794F8D00029460DF028FDC9
:104DB000D4F8C310D82303FB07134A1C994984F87D
:104DC000D0000B44C4F8C3205D71D4F8C7309A42B8
:104DD0003BD10C23F1E694F8D030AB4201D10D2346
:104DE000EBE60023E9E6019B7BBB232D54F8056C21
:104DF0001CD18D4B01221A708C4B8D4A5E651A6551
:104E00009DF804208B4883F85920802283F858208D
:104E100003F150021A605E60DE640BF00BF80AF0DA
:104E200049FD854A136843F480131360834B93F85C
:104E30002030AB4209D10A250A2010F04EFA304644
:104E400010F0C8FB002801F0848114F8013C0D2B00
:104E50007FF484AE7A4B0DF128090FCB89E80F005F
:104E6000D4F8C720D82303FB0722764BB4F8CD60D3
:104E7000134494F8CC200F938DF84220B3B2002253
:104E8000F6B2ADF84420069280464946304606AA5E
:104E90000E94ADF84030ADF8303001F003FA05461D
:104EA000002841F04C80762E0E9B40F083805A1CE7
:104EB0000E921E785EB9644B1B68DD0734D5634BD8
:104EC0004FF0A5090ECB3546B246B3463CE0FF2E67
:104ED0000AD112A95E4805F0D3FD12A90EC94FF000
:104EE000A509AA46AB462FE0721ED3B21D2B24D8CB
:104EF000584B93F97D148E421FDC182101FB0233BD
:104F000003F5D67E93F8AC01D3F8B011D3F8B421F1
:104F100003F5D4731B69BEF810B0BEF812A0BEF83A
:104F200014509EF8169010E04FF0A5093546B24691
:104F3000B34633463246314606E0AA46AB462B46D8
:104F40002A4629464FF0A5090420DDF828E00293FF
:104F50000EF1010CCDF828C08EF80060DDF828E0D5
:104F600016AE0EF1010C46F830CD8EF8000030463A
:104F700003920DF045F9039A304611460DF040F9C1
:104F8000029B304619460DF03BF930461FFA8BF173
:104F90000DF04AF930461FFA8AF10DF045F9304616
:104FA000A9B20DF041F90A9B5A1C0A9283F80090AD
:104FB00000F0C5BF0F9D472EA5EB03054ED10EA8EF
:104FC0000DF0EEF8052D064603D90EA80DF0FEF8FB
:104FD00000E080200A9A0B9BDFF87CA09B1A984285
:104FE000A8BF1846DAF80C1085B2891B8D4288BF1D
:104FF0008DB2484631460DF003F9DAF80C30AA19A3
:105000009A42DDF8289088BF9D1B04F05FFF304670
:1050100049462A4604F0B6FF0A9B18440A9000F05D
:105020008EBF00BFE83900200D420020DC0F0020B9
:1050300031520108A5CE0108E43D00201E220020C7
:1050400018B40108ED390020883900206C190020BF
:10505000D41D0020D41C002020000020512E00F080
:10506000418500F2F1802D2E00F0918600F29580AE
:10507000182E00F028846CD80F2E00F04D842DD807
:10508000072E00F0D4830D2E40F056875A1C16AE22
:1050900046F8202DC04D1B783046AB700DF096F8C9
:1050A000E88130460DF092F8288230460DF08EF8F7
:1050B000688230460DF08AF80E9BA8825A1C0E9228
:1050C0001A4612F8021B304685F824100E925B78BF
:1050D0002B700DF07BF8E88401F046B8112E00F03B
:1050E0003F84162E40F028870EA80DF06FF80E9B17
:1050F000A94D5A1C0E921A46288412F8021B0EA8BB
:1051000029710E925A782A72DA1C0E929A786A7174
:105110001A1D0E92DA78EA715A1D1B790E92EB7005
:105120000DF054F868840EA80DF050F8E8830EA82E
:105130000DF04CF8E8820EA80DF048F828830EA870
:105140000DF044F868830EA80DF040F8A88301F034
:105150000BB8272E00F0E78510D8232E00F0A3818E
:10516000252E40F0E9868D4D00230EA82B600DF012
:1051700017F82B681843286000F0F6BF292E00F0BE
:10518000F3852B2E40F0D8865A1C0E921A78844B49
:105190001A7007F0CBF900F0E7BF3E2E00F0468111
:1051A00010D8372E00F08F8607D8332E00F07A867D
:1051B000352E00F0A48100F0BFBE392E00F0C1856D
:1051C0003C2E75E0482E00F0A28435D8412E00F028
:1051D0006F86432E40F0B08616AD5A1C45F8202D40
:1051E0001A786F4B6D4E1A7007F0A0F9002328460D
:1051F00033600CF0D5FF336818430E9B30605A1CA7
:105200000E921A78674B28461A720CF0DFFF664E32
:10521000308028460CF0DAFF708028460CF0D6FF6C
:10522000B08028460CF0D2FF604EF08028460CF08B
:10523000CDFF308100F098BF4A2E00F003814C2E44
:1052400000F0F88500F078BED02E00F0248400F243
:105250009480C92E00F05E842ED85F2E00F09682D6
:1052600022D85B2E00F06C825D2E40F065865A1CC1
:1052700016AD45F8202D1A784D4E4E4B2846D6F8DF
:105280000090DA710CF0A2FFFF28A8BFFF2089F878
:105290004000284636680CF099FFFF28A8BFFF2081
:1052A00086F8430000F060BF612E00F0F182C82E46
:1052B00000F05A8700F040BECD2E00F0F48307D8EE
:1052C000CA2E00F0C680CC2E00F03C8100F034BE27
:1052D000CE2E00F0F283CF2E40F02E860EA80CF0DA
:1052E00075FF6FF4AF6143189BB22E4EC62B98BF6B
:1052F000F0820EA80CF06AFF2F4D28800EA80CF04B
:1053000065FF68800EA80CF061FFA8800EA80CF065
:105310005DFF2A4B2A4D18800E9B0EA85A1C0E9238
:105320001B782B700CF05DFF0E9B0EA85A1C0E9282
:105330001A4612F8021B69700E925A781B4DEA72D7
:10534000DA1C0E929B78F3740CF04BFF0EA80CF055
:105350003DFF0E9B5A1C0E921A4612F8021B0E922B
:105360005A7829702A71DA1C0E929A78EA701A1DFE
:105370000E92DB786B7100F0F7BED92E00F09B81A6
:1053800028D8D32E4BD01DD8D12E00F0FA83D22EA0
:1053900039D000F0D1BD00BFD02100200C12002078
:1053A0006426002018390020B42200203A3800205A
:1053B000882500206C1100204E260020303100206E
:1053C000E7110020D42E00F01E81D62E40F0B485C7
:1053D000002509E1DC2E00F0A5810CD8DA2E00F0C2
:1053E0006F81DB2E40F0A885BE4BBF4819680AF0DC
:1053F0004FF800F0B9BEF22E00F03781FA2E00F01F
:10540000678300F099BDB94A1268500700F1AC8675
:105410005A1C0E9218780CF09BFC00F0A5BE0EA84A
:105420000CF0D4FEB24B188000F09EBE5A1C0E92B7
:105430001A46B04912F8020B88700E925B784B70D6
:1054400000F092BE0EA80CF0C1FEAB4B988000F0AD
:105450008BBE002512F090FFDDF8389005EB450675
:10546000CA4609F101030E931AF8023B0135835530
:1054700012F082FFCDF838A099F801303044437023
:1054800012F07AFF09F103030E9399F802303044C9
:105490000A2D8370DED1994B012583F8DC5009F089
:1054A00053F900F061BE5A1C0E921D78132D00F2C4
:1054B00043859A1C0E925A780021914E0C2000FBD5
:1054C0000160067A964215D101788E4A02F82510BD
:1054D000D91C0E91997802EB85025170191D0E911D
:1054E000D9789170591D1B790E91D3700FF098FCEB
:1054F00000F03ABE01312129DFD100F01DBD5A1C58
:105500000E9219780B2900F217859A1C0E925D787D
:10551000032D00F21185062251437B484218557134
:10552000DD1C0E959D7895701D1D0E95DD784554FA
:10553000197951705979D170D91D9B790E911371D8
:1055400000F012BE092D40F2F7840EA80CF049FEBF
:105550000E9BDFF8C8915A1C0E92D9F800601B7898
:105560000022B3700E9B022A03F101010E911B78F9
:1055700008D1012B03DDB42BA8BFB42300E01346F0
:10558000F37108E0052B03DDB42BA8BFB42300E0C2
:105590000623B01843710132032AE3D14B1C0E934A
:1055A0000B4613F8022B0EA8642AA8BF64220E93A0
:1055B00032724B78F3700E9B5A1C0E921B7833712B
:1055C0000CF004FE0A2D18BF0E9B30801FBF591C23
:1055D0000E911B78D9F8002018BF5372474A012357
:1055E00082F8DC3000F0A9BC0EA80CF0EFFD052D10
:1055F000D8BF464B80B2D8BF23F815000135082D1F
:10560000F2D100F0B1BD0F2D40F096845A1C0E92DD
:105610001D78072D00F290840EA80CF0D7FD0C2306
:105620005D43DFF8FC9009EB0506B0800EA80CF096
:10563000CDFDF0800EA80CF0C9FD0E9B30815A1CE8
:105640000E921B780EA8B3720CF0CBFD0EA80CF0D6
:10565000C8FD0E9B0EA85A1C0E921B78F3720CF01C
:105660009FFD49F8050000F07FBD5A1C0E92197885
:105670000F2900F261849A1C0E925878244A16ADC4
:1056800002F82100D81C0E90987802EB8102191DB7
:1056900050700E91D9789170591D1B7945F8201DD5
:1056A000D37028460CF092FD28460CF09AFD06F0C7
:1056B000D9F800F059BD0EA80CF088FD154D36E361
:1056C0005A1C0E921A4612F8021B134D0E925A786B
:1056D00016A86A70DA1C40F8202D9B782970EB70B0
:1056E0002BE300BF8825002044E80108E43D0020AA
:1056F000D8250020681100206C110020DC0F00204C
:105700005CB40108403100207E11002058260020A2
:105710007323002048260020D23100209425002049
:10572000B42300205A1C0E921A46AE4912F8020BFE
:10573000087016A840F8202D5A78AB4B1A70BEE0BE
:105740005A1C16AD45F8202D1B78A64E2846B3707E
:105750000CF047FD28460CF044FD0E9BDFF8AC92A0
:105760005A1C0E921B78284689F808300CF02EFD42
:10577000A9F8060028460CF029FD9C4B58800E9B8A
:105780005A1C0E921B78F37000F0EEBC984D0EA8D8
:105790002E680CF01BFDA6F848000EA82E680CF031
:1057A00015FDA6F84A000EA82E680CF00FFDA6F80D
:1057B00044000EA80CF015FD0EA80CF012FD0EA86A
:1057C0000CF00FFD0E9BD5F800905A1C0E92187825
:1057D00013F06EFB874913F073FC0021064613F0AB
:1057E00059FD40B930464FF0804113F071FD18B1BA
:1057F0004FF0804600E00026C9F858600EA80CF073
:10580000E5FCA9F85C000EA80CF0EBFC0EA8D5F89E
:1058100000900CF0DBFC0A267043C9F850000EA87B
:105820002D680CF0D3FC7043E86400F09DBC0EA81A
:105830000CF0D7FC0EA80CF0C9FC0EA80CF0C6FCAE
:105840000E9B6B4D591C0E912A681B780EA882F88E
:1058500046300CF0C6FC0EA80CF0B8FC664B614953
:1058600058800E9B5A1C0E921A4612F8020B887131
:105870000E9229685B780EA881F842300CF0B1FCDA
:105880000EA80CF0AEFC0EA80CF0ABFC0EA816E0B7
:105890005A1C0E921A46544912F8020B16AD45F8DE
:1058A000202D48705A78554B28461A700CF099FCF8
:1058B00028460CF096FC28460CF093FC28460CF089
:1058C00090FC00F051BC0EA80CF080FC4C4DE8851B
:1058D0000EA80CF07BFC28860EA80CF077FC0E9B23
:1058E00068865A1C0E921A4612F8021B0EA80E92D7
:1058F00085F82A105A7885F82B20DA1C0E929A78AF
:1059000085F82C201A1D0E92DB7885F834300CF0C7
:105910005DFCE88600F028BC0EA80CF057FC324D68
:10592000A8800EA80CF052FCE8800EA80CF04EFCEB
:1059300028810EA80CF04AFC68810EA80CF046FCE9
:10594000A8810EA80CF042FCE8810EA80CF03EFCE9
:105950000EA80CF03BFC0EA80CF038FC00F004BCC8
:105960000EA80CF033FC13F0A3FA224913F0A8FBA5
:105970000021064613F08EFC30B93046214913F061
:10598000A7FC10B11F4E00E000261F4D0EA8AE6010
:105990000CF01CFC13F08CFA164913F091FB00215B
:1059A000064613F077FC30B93046164913F090FCE8
:1059B00010B1144E00E000260EA86E610CF006FC3B
:1059C00013F076FA0B4913F07BFB0021064613F027
:1059D00061FCE8B930460B4913F07AFCC8B1094EB6
:1059E00017E000BF6C110020803800201412002046
:1059F000882500200000C842642600201E120020D6
:105A0000D021002000002041201200204E2600203E
:105A100000260EA8AE610CF0D9FB13F049FA9949A3
:105A200013F04EFB0021064613F034FC30B930462B
:105A3000954913F04DFC10B1934E00E000260EA8DE
:105A4000EE610CF0C3FB13F033FA8E4913F038FB10
:105A50000021064613F01EFC30B930468A4913F087
:105A600037FC10B1884E00E000260E9A2E62531CBF
:105A70000E931378042B03DD0A2BA8BF0A2300E042
:105A8000052382494B71931C0E935378012BA8BFB9
:105A90000123EB7068E37E4B1B685A0700F16483B7
:105AA0000EF05EF819E07A4B1B685B0700F15C832F
:105AB000784B4FF4C8721A8056E3754B1B685E072B
:105AC00000F15283744A136843F0040313604BE3FC
:105AD0006F4B1B685D0700F12F820CF05BF80DF037
