:020000040800F2
:1000000000500020658001081D81010891690108E8
:100010001D8101081D8101081D81010800000000EB
:100020000000000000000000000000001D81010829
:100030001D810108000000001D810108C51D010887
:100040001D8101081D8101081D8101081D81010814
:100050001D8101081D810108F99C0008F79C00081A
:10006000F59C0008F39C0008F19C0008497000080A
:10007000397000082970000819700008097000081C
:10008000F56F0008E16F00081D8101081D8101085E
:100090001D8101081D8101081D810108EF9C0008D8
:1000A0001D810108C1EB00081D810108D1EB00088A
:1000B000B5EB0008A5EB000895EB00081D810108D1
:1000C0001D8101081D8101081D8101081D81010894
:1000D0001D810108DD6C0008D56C00081D81010838
:1000E000ED9C00081D8101081D8101080000000031
:1000F0000000000000000000000000000000000000
:0C01000000000000000000005FF808F1A3
:100110002DE9F04F984BA5B01B68CDE904019D6A0D
:10012000964B28461D6017F0ADF9954917F0FEF97A
:10013000944C954B954F1860E378A3B9DFF84C8247
:100140007B684046984790B9E0E09048984700287F
:10015000F4D18F4B1E6811F0D7FD049B6336C01A93
:1001600028448642EADBFB68002BEED1F1E7894E9A
:10017000B6F84850002D3FD1B8F92620B8F9203004
:10018000854C9B1A2360B8F92820B8F92230204604
:100190009B1A6360B8F92A20B8F9243098F8301017
:1001A0009B1AA36011F087F97C4E54F8250017F0D4
:1001B00069F9F96917F0BAF9237B4FEA8508012B31
:1001C000814604D11AF08EF9754B23F81500754A53
:1001D000236958F8020049469847237B8046022B42
:1001E00004D11AF07FF96E4B23F815000135032D69
:1001F00046F8048BD9D189E094F80190374634460B
:1002000045464FF00008B6F848A0B5F92000BAF509
:100210007A7F02BF00233B60E3613B6803443B609D
:1002200017F030F9E3690133012BE36104D10023B6
:100230002061E06063612AE0D4F80CC00893614655
:10024000CDF818C0079017F067F8089B834618464A
:1002500017F018F90146584617F01CFADDF818C0D7
:100260000146604617F05AF80346079A194620617E
:100270001046069317F050F80146584617F056F905
:10028000616917F04BF8069BA061E3606061002391
:10029000BAF1010FEB8424D1E069012807DD0138B0
:1002A00017F0F0F80146A06917F0F4F900E000201B
:1002B0001AF0DEFA8246B9F1000F0AD0484617F06C
:1002C000E1F80146504617F0EDFA10B14FF47A7399
:1002D00015E03B684FF47A7203F5FA7393FBF2F37F
:1002E000EB8408F10108B8F1030F05F1020507F1ED
:1002F000040704F1140486D1B6F84830013BA6F88F
:100300004830234B00225A609A60DA60264B1B6803
:10031000990740F1E981254C636820469847A24639
:10032000002800F0DD81B4F90E30E362B4F910303A
:100330002363B4F9123063631D4C638806942BB9B0
:100340001C4D2F88002F00F09F8137E00AF128060E
:100350000025194F1C2356F8040F03FB057717F0EF
:1003600091F80146384612F0D5FE1AF0BBF8013577
:10037000032D3060EDD1E3E7FC2D0020843E00200A
:10038000BD378635800D0020641C0020E80C00205D
:100390000C1E00207C16002020080020101E0020CB
:1003A000180E002034080020BC2C00202C2D00202A
:1003B000642D0020E00C0020782D0020DAF8349025
:1003C00089EAE970A0EBE97017F05CF84FF07F5113
:1003D000804617F05FF9DAF82C40834684EAE4702F
:1003E000A0EBE47017F04EF806465846314617F079
:1003F00059FA80B1314B186B0028B8BF404217F052
:1004000041F80146584617F04DFA20B1B9F1000FF6
:1004100037DC01265DE04FF07F51304617F03AF9A6
:10042000DAF83070834687EAE770A0EBE77017F0E0
:1004300029F881465846494617F034FA48B15846DB
:10044000414617F02FFA20B1002CCCBF022603261C
:100450003FE048464FF07F5117F01CF93146814686
:1004600017F020FA002800F00F814846414617F0A7
:1004700019FA002800F00881002FCCBF04260526B9
:1004800027E0B7F5C87F23D10D4B00220D49002688
:1004900056540132062A43F8046C1E605E6003F174
:1004A0000C03F3D1084886666C3013F01DFA074A36
:1004B000136823F4007313600BE000BF2C2D0020A1
:1004C00044080020E20C002020080020841C0020AA
:1004D0000026DFF83883BE4F18F806300BBBBD4945
:1004E00007F16C0013F058F90C2101FB0671DAF8E2
:1004F0002C300A6A13440B624A6ADAF8303013442B
:100500004B628A6ADAF8343013448B622B88012BF1
:1005100007D108F80630BB6E02200133BB6609F034
:1005200025FFBB6E062B40F0AB8016AFAA483946BC
:1005300013F017F9002557F8150019F0D3FF069BA3
:10054000A64E2B440235062D9880F4D1A24813F014
:10055000CBF9B6F90430B6F908900693B6F906302F
:100560009F4E0793BAF80C304FF0000B089356F8E3
:10057000043C4FF4C87193FBF1F3069A964D9B1A15
:100580003268199392FBF1F2079B4FEA6B04D21A7F
:10059000736805EB041793FBF1F30C37B846C9EB0E
:1005A00003031B931A924035002319AA52F8230023
:1005B0000A9316F067FF0990089816F063FF099AEE
:1005C0000146104617F066F8014616F0AFFF0246E6
:1005D00058F8040F1146099216F0A0FE099A47F840
:1005E000040F2868114616F099FE0A9B45F8040B83
:1005F0000133032BD9D1764D4FF07E5105EB041713
:10060000D7F8880016F08AFE05EB8404C7F8880046
:100610004FF07E51E06E16F081FEE066A86F4FF05D
:100620007E5116F07BFE0BF1010BBBF1060FA867A4
:1006300006F10C069BD11CA905F16C0205F17C00AA
:1006400012F0DDFF1C981AF013F916901D981AF09D
:100650000FF917901E981AF00BF90024189016AB9A
:1006600053F814004FF08B4116F060FF19F03AFF79
:100670005A4B23440234062C5881F0D10FF087F8EE
:10068000584A1388013B13805448DAF82C30B0F9EB
:1006900004204FF480549A1AB0F90A30B0F90C10C3
:1006A0005A4392FBF4F2DAF83030CAF82C20B0F951
:1006B00006209A1A4A4392FBF4F2DAF83430CAF868
:1006C0003020B0F908209AF815109B1AB0F90E20C6
:1006D0004048534393FBF4F3CAF8343010F0EBFE78
:1006E0003B4B012283F8BC20394CDDE90423D4E9DB
:1006F0003067C4E930233C4B3C4D1B6813F0020FBC
:1007000047D094F8BC30002B43D0DFF8049138492F
:10071000D9F8040016F00AFFDFF8F8803449C8F869
:100720000000D9F8080016F001FF3149C8F80400AC
:10073000D9F80C0016F0FAFEC8F80800A88916F0DF
:10074000A1FE01462B4816F0A5FF81464FF0000898
:1007500005EB0803D86A16F095FE494616F0E6FE4A
:10076000254B43F8080008F10408B8F10C0FEFD14D
:10077000DDE90401801B61EB070116F031FB12A3D8
:10078000D3E9002316F062FB16F072FD07F0A8FE15
:1007900003E00023EB622B636B63184B184E1A794E
:1007A0000793002A00F0A980164B174D1B6813F021
:1007B000100331D1ADF87030ADF87230ADF874304F
:1007C00068E000BFAFF300808DEDB5A0F7C6B03E86
:1007D00020080020582D00208C080020642D0020C7
:1007E00044080020E00C0020BC2C00202C2D002010
:1007F00035FA8E3C8F2A7544E0160020342E0020F6
:10080000002E0020841C00201C170020E20C002079
:100810000C1E0020D4160020B34BB5F908001F6849
:1008200016F030FEB7F954100AF090FAADF87000E7
:10083000B5F90A0016F026FEB7F956100AF086FA46
:10084000AA4BADF872001B68D87916F01BFEA849B8
:1008500016F06CFE0746B5F90C0016F013FE39468B
:1008600016F05CFDA34916F061FE39468046384615
:1008700016F054FD0146404616F00CFF9D4916F057
:100880004BFD9D4916F04AFD00F1004017F014F8A9
:10089000ADF874002B88F78AADF87630974B18685E
:1008A000974B00F48050B3F800E0EB7903EB830141
:1008B0000023944A5D182A445278012A0BD005D3AC
:1008C000022A16D11CAA32F813500FE0079A02EB45
:1008D0004302558D0AE0032B8B4A01D0002506E028
:1008E00000280CBF75463D46D58002E0864A22F8B6
:1008F00013500133042BDCD1A6E07C4BDFF838A287
:10090000D3F800B0DFF834929BF802309AF80080F8
:1009100019464246B9F9000004930EF0E7FA7A4D01
:10092000049B4246194628800746B9F902000EF09A
:10093000DDFA68809BF8091080469AF80120B9F921
:1009400004000EF0D3FAB9F90610338B40429942F5
:10095000A88005DBB1F5FA6FA8BF4FF4FA6100E09B
:100960001946C91A4FF47A725143C3F5FA63B1FBC1
:10097000F3F14FF0640991FBF9FC644A6FF06303F3
:1009800003FB0C1332F81C000CF1010C32F91C10A3
:1009900002B28A1A5A4392FBF9F307990344C978C1
:1009A000DFF864E1EB805A4A002942D0594B1B68BA
:1009B0005A0649D5584B0A20B3F9043093FBF0F09E
:1009C000564B1B88C01A00B216F05CFD544916F055
:1009D000ADFD814613F0ACF88246484613F034F87A
:1009E0008146404616F04EFD8046384616F04AFDD8
:1009F0005146834616F09AFD49460746404616F092
:100A000095FD0146384616F087FC16F055FF514615
:100A10002880404616F08AFD49460746584616F09B
:100A200085FD0146384616F079FC16F045FF6880D2
:100A30000AE0BEF8001013865185BEF802109185B9
:100A4000BEF80410D185B1E70EF0B2FA96F8203066
:100A5000DFF8B480002B00F09480324B324D1F78C9
:100A600094F8C8304BB9314B05F1CC001A6801211C
:100A700013F028FF012385F8C8302D4B2A4E186843
:100A800016F000FD014606F1CC0012F043FB294BA5
:100A90005D8816F011FF95FBF0F0451CADB2A4F88F
:100AA000E850002F4CD0B6F9EA9000231E4E164AAB
:100AB00006F1F40732F813E037F8132006F1EC0CD6
:100AC000C2EB0E0A3CF9132027F813E009FB02F1F0
:100AD0002AB291FBF2F252442CF813200133042B7A
:100AE000E4D1A6F8EA0030E0541C0020601C00208D
:100AF0000000204100007A440000FA43C02C00208E
:100B00005E160020A8BA0108581C0020A617002075
:100B1000342E0020681C00209C3E00203A1100204A
:100B200035FA8E3C3C110020200800200C1E0020CD
:100B3000843E0020B41D0020BE170020C01D0020F0
:100B4000B6F8EA30013BA6F8EA30B4F9EA00914A77
:100B500000284FF0000312DDB2F9E8508E49A1F1F0
:100B6000080232F9132031F81310424392FBF5F2D8
:100B70008A1A28F813200133042BEFD101E0A2F8E0
:100B8000EA30864BDFF84CA21E780493002E00F06A
:100B9000D681834F834D3B6813F0040F0AD12B7A23
:100BA000002B3CD005F58070D5F81811072214F001
:100BB000A9FA34E0152008F087FBE8B194F8FC307E
:100BC000EBB141F21009784B1B6803EA0909B9F14E
:100BD000000F14D12B7A93B1DAF8003005F580704C
:100BE00013F0010FD5F8181114BF0522072214F0D5
:100BF00089FA84F8FC9002E0012384F8FC30DAF8EA
:100C00000030DB070BD5694814F022FBC5F8A401BE
:100C1000664814F0A7FAC5F8A80114F059FA644B15
:100C20003A681B685707D4F80001C4F8003110D5A2
:100C3000181A16F027FC5F4916F078FCD5F8301129
:100C400016F074FC0146D5F89C0416F067FBC5F855
:100C50009C042B7A6BB1DAF80030D80709D594F8E8
:100C6000043133B90E2009F0B9FA4A4B012283F856
:100C70000421AB7B33B1162008F026FB10B9494B99
:100C80000122DA73162008F01FFBA873182008F061
:100C90001BFB28740DF0B2FA14F0D2FC2A78464BF4
:100CA0001C2101FB02335F89390557D53E4B1B6878
:100CB0005A0553D4DAF80030404A13F0100F404B75
:100CC00023D092F80390B3F90200494612F01AFEBD
:100CD00080B298B13B4B00B29B8A4042584316F019
:100CE000D1FB8346484616F0CDFB0146364816F048
:100CF00013FB0146584616F0CDFC2AE02B7B73B35C
:100D00000020002114F002F928E0304992F803B0E5
:100D1000B1F90090B3F906005946C9EB000012F092
:100D2000F1FD80B20028E9D0264B00B2284A9B8A08
:100D30000028CCBF5188118803FB00F0CCBFC9EB61
:100D40000101C1EB0901CBEB010190FBF1F016F0C1
:100D500099FB012114F0DAF8334600E000232B73ED
:100D6000FB0440F1B480104B1B68580500F1AF80C4
:100D7000DAF8003013F0100F104B2DD0B8F9000046
:100D8000997812F0BFFD00B210F1000818BF4FF0C3
:100D9000010898E020080020140900203C110020E0
:100DA0008C3E002088370020681C00200C39002071
:100DB000102C00206F12833A70C80108BE17002063
:100DC000581C0020340E00200000FA4300000020D0
:100DD0005E160020841C002093F80290B8F90200EF
:100DE000494612F08FFD49461FFA80FBB8F9000012
:100DF00012F088FD1FFA80F8BBF1000F02D1B8F1A4
:100E0000000F51D07C4A9378012B58D1558A0FFAA4
:100E10008BF06843C9F5FA7990FBF9F0099316F065
:100E200031FB83460FFA88F0684390FBF9F016F027
:100E300029FB724D8046D5F820215846114608926C
:100E400016F074FBD5F81C9106904946404616F002
:100E50006DFBDDF818C00146604616F05DFA696961
:100E600016F018FC0146D5F8000116F057FA49466D
:100E7000C5F83401584616F059FB089A81461146C8
:100E8000404616F053FB0146484616F047FAA9695A
:100E900016F000FC0146D5F8040116F03FFA099B54
:100EA000C5F8380198460EE0E87A58B11CA815F04C
:100EB000B3F91CA84146012214F082F903E04FF077
:100EC000010800E080464D4B83F80B8001E00023D1
:100ED000EB7217F4005F494D1DD0494B1B6813F4AA
:100EE000806218D1DAF8003013F010030ED1454AB1
:100EF0004549B2F904208978002AB8BF52428A4293
:100F000006DDD5F81831C5F84C3102E0164600E090
:100F10001E466E7301E000236B732A783B4B1C2145
:100F200001FB02339E8941F2B800F343184008F0F8
:100F30001BF9304608F028F92B78A4F80631049AFA
:100F400094F8085100231370DFF8D4B0002D3DD180
:100F50002F4B3049186B16F0E1F900220023CBE942
:100F60000023CBE90C23CBE91023CBF8A00000230E
:100F7000CBF8A40029464FF496720BF1BC00CBF8D5
:100F8000A830CBF8AC30CBF86C30CBF88830CBF84D
:100F90009430CBF87030CBF88C30CBF89830CBF85D
:100FA0007430CBF89030CBF89C308BF8B8508BF87D
:100FB000785019F019F94FF496720BF5F470294630
:100FC00019F012F9144B012283F8082110F09CFE4D
:100FD000CDE9040107F088F920BB0023CBF860308D
:100FE000CBF86430CBF868300C4B8BF878001B687A
:100FF000C4F80C31CFE000BF340E00208837002049
:10100000681C0020581C0020BE17002070C8010872
:10101000800E00206F12833A20080020102C002040
:1010200030230020AD4DDBF86C10286816F074F901
:10103000DBF870108146686816F06EF9DBF8741002
:101040008046A86816F068F9A54D0746A969484684
:1010500016F06CFAE9690646404616F067FA014652
:10106000304616F05BF9296A0646384616F05EFAF5
:101070000146304616F052F9E9680646484616F031
:1010800055FA29690690404616F050FA069B01462B
:10109000184616F043F969690690384616F046FA84
:1010A000069B0146184616F039F9296800F10043FD
:1010B0004846069316F03AFA69688146404616F0AB
:1010C00035FA0146484616F029F9A968804638469F
:1010D00016F02CFA0146404616F020F9069BCBF894
:1010E0006000CBF864307F4BCBF868601B687E4DA6
:1010F00013F0040F31D195F8783073BBDFF8F88125
:101100003046D8F80490494616F006F97749074664
:1011100016F00CFA0146484616F000F90021C8F80E
:101120000400384616F0A0FB08B107F10047704BE9
:10113000987816F0A7F90146384616F095FB6D4BE6
:101140001B6840B1D4F80C219B1AFA2B05D9012356
:1011500085F8783001E0C4F80C3195F87830624FAA
:1011600033B1654B3046596816F0D6F8B86603E0DF
:1011700000233B667B66BB66286E16F09DFBA4F8D9
:101180001001686E16F098FBA4F81201A86E16F014
:1011900093FBA4F81401DFF87491DDE904010AF06F
:1011A0007DFCB9F904000A235843544D4FF001085F
:1011B000C5F8180116F066F9514916F06BFA514955
:1011C00016F0B4F9064612F03FFCC5F81C01304693
:1011D00012F0AEFCDDE904674B4BC5F82001D3E902
:1011E0000001361A67EB01073946304644F61F66A0
:1011F00000278F4208BF864285F80480CDF82490EE
:10120000384F394E80F0B580DFF8E490C3E9020131
:10121000DDE90401C3E90001D6F8A000D9F83010D7
:1012200016F022FB50B1D6F8983040460093D6F81D
:101230008810D6F88C20D6F8943005E0002300936F
:10124000D6F88810D6F88C2014F008F9D6F8A40047
:10125000D9F83010DFF8908016F006FB28B1012095
:10126000D8F89010D8F89C2002E0D8F8901000220E
:1012700014F0BEF8D6F8A890D6F8AC1096F8B030B6
:101280001E4AC5F82491C5F828111BB101215172DD
:10129000D17001E05372D3703A68510738D5002BF2
:1012A00039D0D5F824810021404616F0FBFA90B3DE
:1012B000124B0021D3F82CB1584616F0F3FA40B186
:1012C0005846414616F0D0FA00B9C346C5F82CB1CD
:1012D00021E00A4BC3F82C811DE000BFE01600207E
:1012E000E41D00208C3E0020302300200AD7233B41
:1012F000800E0020102C00200000002088370020E5
:101300000000C84235FA8E3C380900209C3E00207F
:10131000974BC5F82C31484616F0CEFA96F8B830FF
:101320004FF00C0E0EFB036EDFF874C20133DBB21C
:101330000CF18802182B0EF1BC0888BF00230EF5B3
:10134000F47EA4F8280107CA88E807000CF194028B
:1013500007CA8CF8B8308EE80700D6F8A00016F05F
:10136000D1FAA4F82A01D6F8A40016F0CBFAA4F812
:101370002C0110F0C9FC8B46E97900238146A4F8C2
:101380002E3119B17B4B0122A3F82E216B7A2BB1A0
:10139000B4F82E3143F00203A4F82E312B7A2BB18E
:1013A000B4F82E3143F00403A4F82E31337A2BB174
:1013B000B4F82E3143F01003A4F82E31AB7A2BB1E0
:1013C000B4F82E3143F02003A4F82E31DAF80020CF
:1013D00022F08003CAF800303B6813F0040301D107
:1013E0006B74B6E200236B71AB712E78624B1C27D5
:1013F00007FB063312F010026048B3F80A8005D0EC
:1014000040464A465B460CF0F9F84DE218F0080FEA
:101410005B4E4DD0DFF85CE1D4F83031CEF834B11A
:10142000C4F8309132807280B28000293CD0554A95
:10143000C3EB0903934206DDCEF83891CEF83CB1F8
:1014400015F03EF830E283784F4FEBB1DEF83831DB
:10145000CEF83CB1C3EB09084C4BCEF83891984517
:101460000EDCB88B16F00EF8012100F1004013F0ED
:101470004DFD404615F0B2F8404615F061F801E028
:1014800015F01EF80123AB71B7F926204049B5F9D4
:10149000983413440A884988934203DB8B42A8BFDF
:1014A0000B461A46F280FFE13A4B1B88F380FBE1C2
:1014B00018F0010F3DD0D4F8402132492D4BC2EB3A
:1014C00009028A42C4F84091C3F844B106DDC3F86A
:1014D0004891C3F84CB114F0F3FF2AE08278AAB126
:1014E000D3F84871C3F84CB1C3F84891274BC7EB08
:1014F00009079F4206DC384615F070F8384615F0AB
:101500001FF801E014F0DCFF0123AB711E4B2049F2
:10151000B3F92620B5F998341A440B8849889A42C1
:1015200003DB8A421346A8BF0B469BB2F380A4F8A4
:10153000503118F0020F00F0AB81174AD4F858313F
:10154000C2F804B0104AC3EB09039278C4F858916A
:101550000AB9EA7A00E0002206920A4A934221DDA3
:101560000E4BC4F86091C3F804B014F087FF8FE10C
:10157000000080BF2008002070C8010888370020C4
:10158000581C0020400D0300340E00203F0D0300C6
:101590005E1600201C17002078090020800900201A
:1015A000302300202B7A9F4F002B00F035817B7871
:1015B000002B00F055819C4BD4F86021C3F804B097
:1015C000069BC4F86091002B40F02281974BC2EB40
:1015D0000909994500F31A8114F03EFED7F80C1161
:1015E000D7F8400115F098FED7F810110646D7F845
:1015F000440115F091FE31460546304615F096FF40
:1016000029460746284615F091FF0146384615F051
:1016100085FE19F02DF98649074616F043F980B189
:101620003946844816F036F826F00041074615F092
:101630007DFF25F000410646384615F077FF054648
:1016400001E07D4D2E46484615F01CFF7B4915F004
:101650006DFF7B49834615F069FF8246D4F8689197
:101660005146484615F058FE06F1004739460490A9
:1016700016F0FAF830B90498314616F013F910B1A3
:10168000049600E004974846514615F047FE394657
:10169000814616F0E9F838B94846314616F002F9A5
:1016A00008B94F4600E03746D4F86C315146184629
:1016B000089315F031FE05F100463146814616F0DB
:1016C000D3F830B94846294616F0ECF810B1A946CF
:1016D00000E0B1465146089815F020FE314682469A
:1016E00016F0C2F838B95046294616F0DBF808B9AA
:1016F000564600E02E46049B524D4FF0000A0093E0
:101700000197CDF808A05B46D5F84011D5F80C211B
:1017100005F1200013F04AF8CDF800900196CDF8BD
:1017200008A007465B46D5F84411D5F8102105F10D
:10173000440013F03BF8394606465B46C4F86C019A
:1017400002224148C4F8687112F0FCF95B4602229B
:10175000074631463D4812F0F5F9D5F81CB106466A
:10176000594607F1004015F0E1FED5F82091824678
:101770004946304615F0DAFE0146504615F0CEFDDA
:1017800049468246384615F0D1FE5946074630464E
:1017900015F0CCFE0146384615F0C0FD2C4912F07C
:1017A000D1F8064612F0C4F90146504615F0BEFEC7
:1017B000274912F0C7F8274915F0B8FE264915F059
:1017C00069FF16F079F8254B93F8243003EB830377
:1017D0005F00C7F10009484503DBB842A8BF38469F
:1017E00000E04846A5F892041A49304615F09EFEDE
:1017F000194915F04FFF16F05FF8484503DBB84272
:10180000A8BF38468146A5F8949401E014F036FE4E
:10181000044B01225A7123E0A7F89434A7F89234BC
:1018200036E000BF88370020800900203F0D03000C
:10183000CDCCCC3D00007544C23D2D44BD3786352E
:101840000080D44488370020900900209C090020A3
:101850008F2A75440000204135FA8E3C340E00205A
:10186000069BABB9AE4BAF4F1E68B7F9940415F0A9
:1018700009FEB6F9561009F069FAAB4D6880B7F960
:10188000920415F0FFFDB6F9541009F05FFA2880B4
:1018900018F0040F1FBFA34B6422D3F84C3193FB05
:1018A000F2F31CBFA14A13809E4D6B790BB100234C
:1018B0006B70AB7913B19B4B00229A70EB7A2BB112
:1018C000B4F82E3143F04003A4F82E312B7B2BB11A
:1018D000B4F82E3143F08003A4F82E316B7B2BB18A
:1018E000B4F82E3143F48073A4F82E31D5F83401C6
:1018F00047F6FF7618F0F6FDB042A8BF30468C4F91
:10190000B842B8BF3846A4F88801D5F8380118F0B5
:10191000E9FDB042A8BF3046B842B8BF3846A4F887
:101920008A01D5F83C0118F0DDFDB042A8BF304671
:10193000B842B8BF3846A4F88C01D5F8500118F069
:10194000D1FDB042A8BF3046B842B8BF3846A4F86F
:101950008E01784BDFF8D0811B78C3B1764BB3F999
:101960000620764B1B8B9A4211DC754B1B78012BA2
:1019700001D0192B02D1734A527A42B90E2B06D0EC
:1019800003F0EF03082B1CBF0023A8F804306E4BB4
:101990001F68994617F01002049261D1614B1C2117
:1019A0001A786A4B01FB02335B89DA0509D4684B6C
:1019B0005E7A002E54D0674B1B689B0750D0B6B29E
:1019C00000E06426644BDFF8A8A11F6A634938462B
:1019D000BAF80050B8F806B015F046FF002840F0FD
:1019E000D78738464FF07E5115F05CFF08B14FF0B5
:1019F0007E57284615F046FD06900FFA8BF0401BE7
:101A000015F040FD394683464FF07E5015F042FEFA
:101A10004FF07E5115F080FC0746304615F032FD40
:101A20004F4915F037FE0146384615F07FFD4FF05F
:101A30007E5115F073FC0146584615F077FD069A65
:101A40000146104615F06AFC15F036FFA842BAF8B8
:101A5000023003DB9842A8BF18460546A8F8065096
:101A6000B8F80620B4F890310FFA82FA9A4518BFF8
:101A70003C493D4B1EBFA1F8902101221A701B78F2
:101A8000002B00F02A81394B049A1B68002A71D080
:101A90001E7A002E00F088801888354B1D88A842D9
:101AA00040F28280AA4523DD401B15F0EBFC07467F
:101AB000C5EB0A0015F0E6FC0146384615F0EAFDD4
:101AC0004FF07C5115F032FD4FF07C5115F026FCA3
:101AD0004FF07C51054615F0C7FE30B928464FF04F
:101AE000804115F0DFFE28B102E04FF07C5501E0A7
:101AF0004FF080454FF07E51284615F00DFC05460D
:101B0000304615F0BFFC164915F0C4FD01462846C5
:101B100015F00CFD4FF07E5115F000FC42E000BFC7
:101B2000541C002088370020581C0020601F002013
:101B30005A80FFFF04010020C01D0020002E00205D
:101B400074160020280E0020841C002070C8010894
:101B5000C40C0020681C0020E41D00209A99193F45
:101B60000000C84220080020C00C0020601C00209B
:101B70005E160020187AB8B11A88924514DBB04B73
:101B800059888A45BFBFC2EB0A034343501A93FBEF
:101B9000F0F0ACBFC0F16400643015F073FCA949EB
:101BA00015F078FD074601E04FF07E57D9F8003078
:101BB000A54E03F0100304934FF00009049B4FF06F
:101BC000000A4FEA49055BB306F0D4FA4D44405D84
:101BD00015F058FC9D4915F05DFD394615F0A6FC41
:101BE00046F8040C06F0C6FA2844407815F04AFC82
:101BF0004FF07A5115F09AFC394615F097FCC6F86B
:101C000004A0306006F0B6FA2844807815F03AFC5B
:101C10008E4915F03FFD394615F088FCB0604FE065
:101C2000B9F1020F14BFBB464FF07E5B06F0A2FA7B
:101C30004D44405D15F026FC844915F02BFD5946B6
:101C400015F074FC46F8040C089006F093FA28444A
:101C5000407815F017FC4FF07A5115F067FC3060B2
:101C6000069006F087FA2844807815F00BFC784936
:101C700015F010FD594615F059FCC6F808A0706023
:101C8000834606F077FA4119405D069A089BB8B181
:101C90004978A9B111461846069315F0FBFC069B3E
:101CA00005461946584615F0F5FC0146284615F03C
:101CB00035FB01464FF0804015F0ECFCF06001E090
:101CC000C6F80CA009F10109B9F1030F06F16C0681
:101CD0007FF474AF5F4B00221A7008F0B7FB5E4BC5
:101CE0005E481B685E4E13F0100F0AD05D4B1B68F8
:101CF000DF0506D5B8F80090B8F80230B8F80470DF
:101D00001CE0594AB2F80090538897883278032A29
:101D100014D94588B5F5FA7F10D20FFA87FEB8F9C5
:101D200004706A4287EAE771A1EBE771571ABE4572
:101D300003DB6F187745A8BF7746BFB296F80080DF
:101D40000026B346354690F901203FB25242574330
:101D5000DFF830A1464539DA18B2069315F092FB48
:101D6000DAF8081015F0E2FB04900FFA89F015F08C
:101D700089FBDAF8041015F0D9FB049A01461046E5
:101D800015F0CCFA0490384615F07CFBDAF80C100C
:101D900015F0CCFB049A0146104615F0BFFA15F079
:101DA0008BFD1CAA80B222F8160029B202B28A4228
:101DB000069B04DC0FFA8BF18A4202DB28460546BB
:101DC000584601360AF1100A8346C3E7274BCBEB8E
:101DD00005051A68069312F4805F1FFA85FB184AFE
:101DE000234B51D02349B3F806900968224B11F0D8
:101DF000040F22499B8808BFC88AC98A0FFA89F54F
:101E0000A1EB030608BFA4F8F401B5421C4802DCAC
:101E10000388168804E00B449D4204DB53884688FF
:101E2000A4F8F49134E0B4F9F431B342D7BF038895
:101E3000468816889946C4BF5388B14628E000BF3B
:101E40005E1600200000C842201E00200000F8415D
:101E50000020EE44C00C0020841C002074160020DA
:101E6000A81F0020681C0020701F0020C02C00202C
:101E7000581C00208C3E0020BE170020002E0020A1
:101E800058160020B4090020B3F80690168853882D
:101E90009D1B0FFA8BFA0FFA85FBDA459C4A3FDD52
:101EA00001231370584615F0EDFA0746504615F019
:101EB000E9FA0146384615F0EDFB82460025454516
:101EC00010DA1CAB33F91500049315F0DBFA014668
:101ED000504615F02BFB15F0EFFC049B23F8150082
:101EE0000135ECE738468B4915F020FB4FF07C516B
:101EF00015F01CFB02259BFBF5F5074630B2284484
:101F000015F0C0FA394615F007FA15F0D5FC86B27F
:101F100030B2284415F0B6FA394615F0FFF93DE025
:101F2000002111705846049315F0ACFA794915F068
:101F3000FDFA4FF07C5115F0F9FA02279AFBF7F5FC
:101F40009BFBF7F7824636B2F01915F09BFA514623
:101F500015F0E2F98346701915F094FA59460646D1
:101F600015F082FC049B00B95E463046049315F0E0
:101F7000A3FC86B230B2384415F084FA514615F00D
:101F8000CDF9049B074618B2401B15F07BFA394681
:101F9000054615F087FC00B93D46284615F08CFC37
:101FA0005D4B1FFA80FA1B6813F0040300F0A58054
:101FB000079B5A49DB78CA8A0493069B58481F68D6
:101FC000B0F804C007F480530693B4F9F4310588DF
:101FD0000793544BB0F802B09B885348D31A089328
:101FE000524B098B1C8892B20A94C47900881094D1
:101FF00011904F480D9100681FFA8CF100F080009D
:102000000B904C480E92B0F906004FEA48025B88EC
:10201000494C07F010070C900F9112924FF00008F6
:10202000129A904562D01CAA38F802200FFA89F063
:102030001593CDF850C0139215F024FA3F4951F88A
:10204000381015F073FA15F037FC31B28842139A44
:10205000DDF850C0159B04DB0FFA8AF18142A8BF5E
:1020600001460A44049992B224F8022F12B249B1EF
:10207000624503DB5A45A8BF5A4600E0624622800B
:10208000DFB930E0069971B107990898814206DC02
:10209000AA420EDB0A998A42A8BF0A460AE09A427F
:1020A00003DA1A4606E0AA4203DB5A45A8BF5A469D
:1020B00000E02A46228037B915E0109A32B9119A09
:1020C000AA4203D208E00B9A32B901E0049A52B94D
:1020D0000C9A0D998A4206DA0F9A0E9906980028F2
:1020E00018BF0A46228008F1020899E7144C94F8B8
:1020F000F631002B00F0F08128E04345F6DA114A72
:1021000032F81310104A22F813100133F5E700BF1C
:10211000A91F0020C3F5A83E8C3E0020002E002001
:102120005E160020BE1700201C1700205816002045
:10213000841C0020C01D002032160020B40900209D
:10214000200800206816002034160020C04BC1482B
:102150001B680693C04B1A68C04B12F4807F08D0EE
:10216000BF490D88ADF870504D888988ADF8725020
:1021700013E0BC490D88ADF870504D888988ADF8E2
:102180007250B94DADF874102D68ED0407D5B3F950
:102190000660C58AAE4202DA4942ADF8741012F404
:1021A000804218BFB14A4FF47A7118BFD2884FF4F9
:1021B0006165ADF88C20099AB2F9022002F5E1625E
:1021C0004A4392FBF5F2A2F5FA72ADF88820099A1B
:1021D000B2F9002002F5E162514391FBF5F1A44A06
:1021E000A1F5FA711288ADF88A10A2F2DC521988B2
:1021F000ADF87620C28A891AADF878105988891A04
:10220000ADF87A109988891AADF87C10D988891AA6
:10221000ADF87E101989891AADF880105989891A8C
:10222000ADF882109989DB89891A9A1AADF8841061
:10223000ADF8862000238F4F002227F813200133AA
:10224000082BF8D18C4B8D4E1B78DFF8448206EBBF
:1022500083030793079B8A4D9E425DD016F8013C8D
:1022600024AA049302EB430333F9200C15F00AF976
:10227000737881460A20584315F004F9002116F8B6
:1022800002AC834615F00EFB20B35846069915F0B4
:102290004DF90246D8F804C011466046CDF824C076
:1022A000089215F039F883464846594615F0DCFA8D
:1022B00068B9DDF824C0089A6046114615F02EF87A
:1022C00083464846594615F0EDFA00B9CB46C8F8A2
:1022D00004B001E0C8F8049058F8040F15F0ECFAC7
:1022E000049A012393400C2202FB0AF2AA5800B27E
:1022F000134216F9043B18BF4FF0FF3203FB00F006
:1023000008BF01225043642390FBF3F037F81A30E2
:10231000184427F81A009DE7A946DFF858810026DF
:10232000B8F9003099F90A00DFF868A1584364232E
:1023300090FBF3F080B2A8F8000000B200284FEA4A
:10234000C60B04DD15F09EF85AF8361004E0DA44A6
:1023500015F098F8DAF8041015F0E8F815F0ACFA72
:10236000A8F80000F0B208F055F8B8F80030B9F855
:1023700006201844B9F9043000B2984203DB13B2C6
:102380008342A8BF03460136082E28F8023B09F114
:102390000C09C5D11B2006F097FF00287CD094F8CB
:1023A0007832012B24D003D3022B00F08B8093E0F2
:1023B000344B1B685A0740F18F8002230C2101FB2C
:1023C0000351314A098902F27A2020F8131002F5EC
:1023D0002370002140F823100133062BEED12B4B44
:1023E000C2F8B0121B68C2F8AC32012382F878320E
:1023F000244B1B685B0761D5D4F8B002022301307F
:10240000C4F8B002DFF880E037F913100EF523723C
:1024100052F82360314442F823100133062B16464C
:10242000F0D11A4BDEF8AC221B689B1AB3F57A7F09
:1024300052D9022356F823100C2291FBF0F102FB33
:1024400003520133062B1181F4D1022241E000BF77
:10245000641C0020002E0020681C0020C01D0020ED
:10246000581C0020701F0020C02C0020280E0020C7
:1024700034160020300D0020D01C0020D51C002078
:10248000541D00208C3E002020080020102C00202D
:10249000140A0020580A002094F87822AE4B022A31
:1024A0000CD1B3F87E222A84B3F88022AA85B3F82F
:1024B0008222B3F884322A87A5F84430002384F8B6
:1024C000783209E0A54B1B685E0705D40DF05FF973
:1024D0000322A14B83F87822A14E33689D0645D58F
:1024E000002007F097FF9F4D80462880012007F0CD
:1024F00091FF07466880072006F0E6FEB0B394F827
:10250000B4329949012BDFF868C21AD19CF90A004C
:10251000B1F902304042B1F9002058439CF916301D
:102520004FF0320E53436FF0310190FBFEF093FBFE
:10253000F1F193FBFEF30144C1EB08022A80184439
:1025400012E09CF90A20B1F902304FF0320E5343E9
:1025500093FBFEF308EB03022A809CF91600B1F905
:102560000020504390FBFEF038446880D4F8B82235
:10257000794B3AB994F8BC32002B00F09F8005F0FB
:1025800007FE9BE0794FB7F9042012B97849002380
:1025900030E093F8BD5203F530786DB9754B08EB18
:1025A0000500B9881A681C3512F08CF9E02DF5D1B8
:1025B000694B012283F8BD220025DFF8A8A14FF066
:1025C0001C093AF9150014F05DFF09FB0589014665
:1025D000484610F09FFD15F06FF92AF815000135F7
:1025E000082DEAD1D2E70133082B20F80E2001F1A3
:1025F0000C0111D05B48B1F9042030F913504FEAB7
:10260000430E9542B1F806C08146ECDB0FFA8CF21E
:10261000AA42A8BF2A46E6E7574B1B78012B01D0F8
:10262000192B08D14D4B1B68580704D47F7AB7FA91
:1026300087F77F0900E0002794F8F651D5B14F4B9A
:102640001D78BDB14E4B4FF0000893F800A04D4AE5
:1026500008EB0A031278454693420BDC5FFA88F0D8
:102660000FB1002101E039F8131007F0CDF808F19F
:102670000108ECE7336899060BD5E8B26F1CB9F88E
:10268000001007F0C1F8F8B2B9F80210023507F0EF
:10269000BBF83368DA027FF56DAFDFF8FC80EDB28E
:1026A0000027E819C0B238F8021F07F0ADF80D2F67
:1026B00007F101033FF45EAF1F46F2E7324B1F788C
:1026C000002F40F0688133681B0340F164810FF0F4
:1026D0001BFB2E4D80462B788946033B052B1FD8CC
:1026E0002B4B9B7833B1012B09D105F0BBFBC0F11B
:1026F0007F0005E0D4F8A0030FF0BDFC00E03846F1
:10270000D4F8A43394F8A8231344B3F5807FA8BF6A
:102710004FF480738342D4BFC4F8A433C4F8A40335
:102720002B78023B092B00F22D81DFE813F00A0021
:10273000370074009600AC00C400D500E30001012E
:102740000D010023C4F8A433C4F8AC33114B1B684B
:10275000C4F8B033032314E1200800208C3E00208D
:10276000C02C0020300D00209C3E0020280E0020B0
:10277000541D00200C1E002074160020D01C0020C8
:10278000D11C0020D21C0020B6420020C10C002029
:10279000240E0020102C0020C61D00207F4B1A683C
:1027A000D4F8B03364339A4240F2EC80402013F006
:1027B00081F8002840F0E6804FF04008784BD4F8CC
:1027C000AC23784F985C1E4680B113F033F9D7F8EC
:1027D000A433B8F1010803F1FF33C7F8A433D7F8E5
:1027E000AC3303F10103C7F8AC33E7D1D4F8AC3311
:1027F0006C4FF45C002C40F0C5806B486B49D7F8F7
:10280000B42313F0F0F94FF0FF33C7F8B033C7F833
:10281000AC430423B5E044230093654B492003F106
:102820000C02019302925021A3F10A02023304F038
:102830003FFE002840F0A68033684FF0FF3213F0CF
:10284000800305D0C4F8AC03C4F8B023052398E096
:10285000C4F8AC33C4F8B0232BE0564A022300215D
:10286000009301910291482002F1080304F020FE38
:10287000002840F087804FF0FF33C4F8B033C4F82D
:10288000AC0306237DE00B2300934B4B472003F161
:102890000C02019302920021A3F10802043304F018
:1028A00007FE00286ED14FF0FF33C4F8AC03C4F824
:1028B000B033072365E0414A0623002100930191CC
:1028C0000291532002F1080304F0F2FD002859D1CF
:1028D000C4F8AC03082354E005F02EF8002851D0CA
:1028E00013F02CF800284DD04FF48053A4F8B833DF
:1028F0000A2346E0112006F0E7FCB0B1B4F8BA3381
:10290000284E93B9D6F8BC330E201CA91C93CDE9F0
:102910001E8911F091F94FF48053A6F8B8330A23B9
:102920002B704046494611F0DFF911F061F929E0BA
:1029300094F8C033002BF4D0112006F0C5FC002819
:10294000EFD109232B70F0E7144B1A68D4F8B03399
:10295000C8339A4203D91A4B9E788EB904E012F01C
:10296000EDFF0028F7D10DE0D4F8A0030EF0E7FF4B
:1029700094F8C133C4F8A063022B01D10FF050F8D2
:1029800001232B7012F0C4FF28B101232B7002E049
:102990000C4FFFF72EB825B0BDE8F08F102C0020AB
:1029A000BCB201082008002050D30108F2E501085C
:1029B00016B301083CB6010854B60108D0B60108A8
:1029C000240E00209A99193F2DE9F04FB74D97B08A
:1029D0002F78002F73D0B64C2068002801F00F84A8
:1029E00007F08BF96068B24E0FF048FB002801F049
:1029F000068470680FF03CFB092801D03F2851D1B4
:102A00004FF000094E46D4F80880AA4FB8F1000FE5
:102A100005D0A9483968424607F0AAFA10B9B94664
:102A200006B93E46A54B08379F42EFD3D6B1D6F83C
:102A300000E0D9F800C0A3689D4A1EF803701CF896
:102A40000300B8420ED1591C40B93D2B06D813449F
:102A5000916020270A441F73107303E023441F73FF
:102A6000A160E8E7A3680BB14E4510D094480BF085
:102A7000B1FD4E4507D856F8080B0BF0ABFD092009
:102A80000BF096FDF5E70BF0BBFD4FF00008A368D7
:102A90009845A7D2884B13F808000BF089FD08F180
:102AA0000108F4E7B368002B41F02683042841F0C5
:102AB0007F8306F10C000EF02BF901F0A0BB814BD7
:102AC000814C1B6803F00403019354F8053C002B70
:102AD00001F0FE8254F8050C0FF0D0FA002801F046
:102AE000F78254F8050C0FF0C3FA14F8013C0546C0
:102AF000013B0B2B0DD8DFE813F014001F002B0057
:102B0000380069007F008200AF00CD00EB001201A9
:102B10002A01242840F02381002384F8CB300123AC
:102B200007E04D2804D0582840F01781032300E027
:102B3000022304F8013C44E13C284FF00003F8D1A3
:102B4000C4F8C33084F8CF3084F8D0300423F0E7E1
:102B50003C284FF00003ECD1C4F8C33084F8D030E7
:102B6000022384F8CB300A23E3E7D4F8C310D82338
:102B700003FB07134A1C5549C4F8C3200B44587182
:102B800094F8CF30022A85EA030584F8CF5040F04C
:102B900018812378C02B00F2E0806278FF2A07D1E9
:102BA000052B40F2DA80012384F8CB300723C0E7FD
:102BB000A4F8CD2000229342C4F8C73084F8CC207A
:102BC000C4F8C32014BF05230623B2E7D4F8C3100A
:102BD000D82303FB07134A1C3C49C4F8C3200B4409
:102BE000587194F8CF305D40D4F8C73084F8CF5096
:102BF0009A4240F0E68056E094F8CF30A9E0D4F84D
:102C0000C320D82303FB0723561C304AC4F8C360F3
:102C10001344587194F8CF302946434084F8CF309C
:102C200094F8D00010F0C0FF072E84F8D00040F0D8
:102C3000C880B4F80320B4F80530A4F8CD20A278F9
:102C4000C4F8C73084F8CC2000229342C4F8C320D3
:102C500014BF082309236CE794F8D000294610F02C
:102C6000A3FF94F8CF30D4F8C3106B4084F8CF3072
:102C7000D82303FB07134A1C144984F8D0000B44E3
:102C8000C4F8C3205D71D4F8C7309A4240F09980EF
:102C900009234EE794F8CF30434084F8CF3094F8BE
:102CA000D030834259D1062343E700BFB64200200B
:102CB000E40B002000B70108F00B0020E0B701088A
:102CC00010D501088C3E0020752E0020702E0020AB
:102CD000D4F8C320D82303FB0723561CAF4AC4F8FB
:102CE000C3601344587194F8D000294610F05CFF7B
:102CF000052E84F8D00064D1B4F80120B4F8033074
:102D0000A4F8CD202278C4F8C73084F8CC20002263
:102D10009342C4F8C32014BF0B230C2309E794F893
:102D2000D000294610F040FFD4F8C310D82303FB8D
:102D300007134A1C994984F8D0000B44C4F8C320F7
:102D40005D71D4F8C7309A423BD10C23F1E694F878
:102D5000D030AB4201D10D23EBE60023E9E6019B25
:102D60007BBB232D54F8056C1CD18D4B01221A70AE
:102D70008C4B8D4A5E651A659DF804208B4883F85C
:102D80005920802283F8582003F150021A605E60B7
:102D9000DE640BF0F5FE0BF033FC854A136843F458
:102DA00080131360834B93F82030AB4209D10A257E
:102DB0000A200EF0FCFF30460FF060F9002801F009
:102DC0008E8114F8013C0D2B7FF484AE7A4B0DF10B
:102DD00028090FCB89E80F00D4F8C720D82303FBBC
:102DE0000722764BB4F8CD60134494F8CC200F93AF
:102DF0008DF84220B3B20022F6B2ADF8442006921C
:102E000080464946304606AA0E94ADF84030ADF8EB
:102E1000303001F00DFA0546002841F05680762E3C
:102E20000E9B40F083805A1C0E921E785EB9644B54
:102E30001B68DD0734D5634B4FF0A5090ECB354633
:102E4000B246B3463CE0FF2E0AD112A95E4811F00B
:102E500073FC12A90EC94FF0A509AA46AB462FE094
:102E6000721ED3B21D2B24D8584B93F97D148E4279
:102E70001FDC182101FB023303F5D67E93F8AC0169
:102E8000D3F8B011D3F8B42103F5D4731B69BEF89D
:102E900010B0BEF812A0BEF814509EF8169010E0C4
:102EA0004FF0A5093546B246B34633463246314661
:102EB00006E0AA46AB462B462A4629464FF0A5090E
:102EC0000420DDF828E002930EF1010CCDF828C0B3
:102ED0008EF80060DDF828E016AE0EF1010C46F821
:102EE00030CD8EF800003046039210F08CFA039A31
:102EF0003046114610F087FA029B3046194610F012
:102F000082FA30461FFA8BF110F091FA30461FFA20
:102F10008AF110F08CFA3046A9B210F088FA0A9BB8
:102F20005A1C0A9283F8009000F0CFBF0F9D472EE5
:102F3000A5EB03054ED10EA810F035FA052D064677
:102F400003D90EA810F045FA00E080200A9A0B9BE6
:102F5000DFF87CA09B1A9842A8BF1846DAF80C103C
:102F600085B2891B8D4288BF8DB24846314610F02C
:102F70004AFADAF80C30AA199A42DDF8289088BF8C
:102F80009D1B05F05DF8304649462A4605F0B4F829
:102F90000A9B18440A9000F098BF00BF702E0020D2
:102FA000B6420020E40B0020051D010840D50108B1
:102FB0008C3E0020643C0020E0B70108752E002004
:102FC000841C0020FC220020883800208837002044
:102FD00008000020512E00F0518500F2F1802D2EC6
:102FE00000F09B8600F29580182E00F034846CD897
:102FF0000F2E00F059842DD8072E00F0DE830D2E01
:1030000040F060875A1C16AE46F8202DBB4D1B7849
:103010003046AB7010F0DDF9E881304610F0D9F998
:103020002882304610F0D5F96882304610F0D1F988
:103030000E9BA8825A1C0E921A4612F8021B3046AA
:1030400085F824100E925B782B7010F0C2F9E8849A
:1030500001F050B8112E00F04E84162E40F0328749
:103060000EA810F0B6F90E9BA44D5A1C0E921A46EB
:10307000288412F8021B0EA829710E925A782A721F
:10308000DA1C0E929A786A711A1D0E92DA78EA7139
:103090005A1D1B790E92EB7010F09BF968840EA8F4
:1030A00010F097F9E8830EA810F093F9E8820EA8C3
:1030B00010F08FF928830EA810F08BF968830EA802
:1030C00010F087F9A88301F015B8272E00F0F185DC
:1030D00010D8232E00F0A981252E40F0F386884DCC
:1030E00000230EA82B6010F05EF92B6818432860AF
:1030F00001F000B8292E00F0FD852B2E40F0E2866D
:103100005A1C0E921A787F4B1A7005F0A7F800F03F
:10311000F1BF3E2E00F04C8110D8372E00F099867A
:1031200007D8332E00F08486352E00F0AA8100F0F7
:10313000C9BE392E00F0CB853C2E75E0482E00F03C
:10314000B28435D8412E00F07986432E40F0BA86FD
:1031500016AD5A1C45F8202D1A786A4B684E1A7025
:1031600005F07CF800232846336010F01CF9336822
:1031700018430E9B30605A1C0E921A78624B2846F8
:103180001A7210F026F9614E3080284610F021F9AD
:103190007080284610F01DF9B080284610F019F90B
:1031A0005B4EF080284610F014F9308100F0A2BF89
:1031B0004A2E00F009814C2E00F0028600F082BEFB
:1031C000D02E00F0348400F2B180C92E00F06E845D
:1031D0002ED85F2E00F0A08222D85B2E00F07682DF
:1031E0005D2E40F06F865A1C16AD45F8202D1A78DA
:1031F000484E494B2846D6F80090DA7110F0E9F8AD
:10320000FF28A8BFFF2089F840002846366810F044
:10321000E0F8FF28A8BFFF2086F8430000F06ABF4F
:10322000612E00F0FB82C82E00F0648700F04ABED9
:10323000CD2E00F0048407D8CA2E00F0CC80CC2E0E
:1032400000F0428100F03EBECE2E00F00284CF2E70
:1032500040F038860EA810F0BCF86FF4AF61431848
:103260009BB2294EC62B98BFF0820EA810F0B1F881
:103270002A4D28800EA810F0ACF868800EA810F037
:10328000A8F8A8800EA810F0A4F8254B254D1880AA
:103290000E9B0EA85A1C0E921B782B7010F0A4F8EF
:1032A0000E9B0EA85A1C0E921A4612F8021B697049
:1032B0000E925A78164DEA72DA1C0E929B78F374CD
:1032C00010F092F80EA810F084F8174B00EB800075
:1032D000400018800E9B5A1C0E921A4612F8021BD0
:1032E0000E925A7829702A71DA1C0E929A78EA7036
:1032F0001A1D0E92DB786B7100F0FCBE340E0020BC
:10330000200E002074160020002E0020242D002006
:103310006A0D0020541C0020800D00205E16002045
:103320001C170020FB0D0020020E0020D92E00F0FB
:10333000848111D8D32E34D006D8D12E00F0EB835F
:10334000D22E22D000F0BEBDD42E00F01E81D62E8B
:1033500040F0B885002509E1DC2E00F0A5810CD8ED
:10336000DA2E00F06F81DB2E40F0AC85BE4BBF48FB
:10337000196806F0E9FC00F0BDBEF22E00F03781BE
:10338000FA2E00F0718300F09DBDB94A1268500713
:1033900000F1B0865A1C0E9218780CF0E9F900F092
:1033A000A9BE0EA810F015F8B24B188000F0A2BE0E
:1033B0005A1C0E921A46B04912F8020B88700E92EF
:1033C0005B784B7000F096BE0EA810F002F8AB4B85
:1033D000988000F08FBE002513F0BEFADDF838901B
:1033E00005EB4506CA4609F101030E931AF8023BA4
:1033F0000135835513F0B0FACDF838A099F80130B3
:103400003044437013F0A8FA09F103030E9399F8BE
:10341000023030440A2D8370DED1994B012583F8A8
:10342000DC500AF0EBFD00F065BE5A1C0E921D78D0
:10343000132D00F247859A1C0E925A780021914E66
:103440000C2000FB0160067A964215D101788E4A65
:1034500002F82510D91C0E91997802EB8502517063
:10346000191D0E91D9789170591D1B790E91D37049
:1034700005F0F0FE00F03EBE01312129DFD100F061
:1034800021BD5A1C0E9219780B2900F21B859A1C3B
:103490000E925D78032D00F21585062251437B487C
:1034A00042185571DD1C0E959D7895701D1D0E9569
:1034B000DD784554197951705979D170D91D9B79AE
:1034C0000E91137100F016BE092D40F2FB840EA878
:1034D0000FF08AFF0E9BDFF8C8915A1C0E92D9F8A4
:1034E00000601B780022B3700E9B022A03F10101D9
:1034F0000E911B7808D1012B03DDB42BA8BFB42398
:1035000000E01346F37108E0052B03DDB42BA8BFE0
:10351000B42300E00623B01843710132032AE3D13B
:103520004B1C0E930B4613F8022B0EA8642AA8BF5F
:1035300064220E9332724B78F3700E9B5A1C0E92DB
:103540001B7833710FF045FF0A2D18BF0E9B30809A
:103550001FBF591C0E911B78D9F8002018BF537259
:10356000474A012382F8DC3000F0ADBC0EA80FF012
:1035700030FF052DD8BF464B80B2D8BF23F81500C9
:103580000135082DF2D100F0B5BD0F2D40F09A8421
:103590005A1C0E921D78072D00F294840EA80FF08D
:1035A00018FF0C235D43DFF8FC9009EB0506B080A3
:1035B0000EA80FF00EFFF0800EA80FF00AFF0E9B72
:1035C00030815A1C0E921B780EA8B3720FF00CFFBC
:1035D0000EA80FF009FF0E9B0EA85A1C0E921B7826
:1035E000F3720FF0E0FE49F8050000F083BD5A1CAD
:1035F0000E9219780F2900F265849A1C0E92587861
:10360000244A16AD02F82100D81C0E90987802EBDF
:103610008102191D50700E91D9789170591D1B7936
:1036200045F8201DD37028460FF0D3FE28460FF032
:10363000DBFE06F0B7FE00F05DBD0EA80FF0C9FE80
:10364000154D3AE35A1C0E921A4612F8021B134DFE
:103650000E925A7816A86A70DA1C40F8202D9B78D2
:103660002970EB702FE300BF541C0020F4EE01081A
:103670008C3E0020601F00207C0D0020800D00206B
:10368000E40B002024B801082C170020920D002024
:1036900068160020131D002058160020BE170020B9
:1036A000601C0020541D00205A1C0E921A4612F86D
:1036B000020BA6490E920870A54A59781170DA1CBF
:1036C0000E929A78A34B9A7000F014BD5A1C16AD56
:1036D00045F8202D1B789D4E2846B3700FF084FED0
:1036E00028460FF081FE0E9BDFF88C925A1C0E923A
:1036F0001B78284689F808300FF06BFEA9F8060001
:1037000028460FF066FE944B58800E9B5A1C0E9272
:103710001B78F37000F0EEBC904D0EA82E680FF0F1
:1037200058FEA6F848000EA82E680FF052FEA6F824
:103730004A000EA82E680FF04CFEA6F844000EA812
:103740000FF052FE0EA80FF04FFE0EA80FF04CFE29
:103750000E9BD5F800905A1C0E92187813F092FE2A
:103760007F4913F097FF0021064614F07DF840B919
:1037700030464FF0804114F095F818B14FF0804674
:1037800000E00026C9F858600EA80FF022FEA9F844
:103790005C000EA80FF028FE0EA8D5F800900FF0E0
:1037A00018FE0A267043C9F850000EA82D680FF0C5
:1037B00010FE7043E86400F09DBC0EA80FF014FEEC
:1037C0000EA80FF006FE0EA80FF003FE0E9B634D31
:1037D000591C0E912A681B780EA882F846300FF00B
:1037E00003FE0EA80FF0F5FD5E4B584958800E9B66
:1037F0005A1C0E921A4612F8020B88710E92296812
:103800005B780EA881F842300FF0EEFD0EA80FF0A5
:10381000EBFD0EA80FF0E8FD0EA818E05A1C0E9262
:103820001A464B4912F8020B16AD0E9248705978A1
:103830004D4A1170DA1C45F8202D9A78454B2846E0
:10384000DA700FF0D1FD28460FF0CEFD28460FF0BC
:10385000CBFD00F04FBC0EA80FF0BBFD434DE8853B
:103860000EA80FF0B6FD28860EA80FF0B2FD0E9B35
:1038700068865A1C0E921A4612F8021B0EA80E9267
:1038800085F82A105A7885F82B20DA1C0E929A783F
:1038900085F82C201A1D0E92DB7885F834300FF055
:1038A00098FDE88600F026BC0EA80FF092FD284D8A
:1038B000A8800EA80FF08DFDE8800EA80FF089FDFE
:1038C00028810EA80FF085FD68810EA80FF081FDFC
:1038D000A8810EA80FF07DFDE8810EA80FF079FDFC
:1038E0001C4DA8800EA80FF074FDE8800EA80FF004
:1038F00070FD2881FEE30EA80FF06BFD13F0C2FDF2
:10390000174913F0C7FE0021064613F0ADFF30B98A
:103910003046174913F0C6FF10B1154E00E00026DF
:10392000144D0EA8AE600FF054FD13F0ABFD0C4922
:1039300013F0B0FE0021064613F096FFF0B93046B2
:103940000B4913F0AFFFD0B1094E18E0800D0020F5
:10395000642D0020020E0020280E0020541C0020A0
:103960000000C84274160020320E0020340E0020E1
:1039700000002041800E00205E16002000260EA8C8
:103980006E610FF026FD13F07DFDA24913F082FE5B
:103990000021064613F068FF30B930469E4913F007
:1039A00081FF10B19C4E00E000260EA8AE610FF022
:1039B00010FD13F067FD974913F06CFE00210646D9
:1039C00013F052FF30B93046934913F06BFF10B13A
:1039D000914E00E000260EA8EE610FF0FAFC13F005
:1039E00051FD8C4913F056FE0021064613F03CFFB2
:1039F00030B93046884913F055FF10B1864E00E0CB
:103A000000260E9A2E62531C0E931378042B03DDAE
:103A10000A2BA8BF0A2300E0052380494B71931CA1
:103A20000E935378012BA8BF0123EB7062E37C4B0C
:103A30001B685A0700F15E830FF04AF819E0784BD3
:103A40001B685B0700F15683764B4FF4C8721A80EF
:103A500050E3734B1B685E0700F14C83724A136896
:103A600043F00403136045E36D4B1B685D0700F1F1
:103A700029820BF09FFD0EF003FE3BE36B4A92F8A8
:103A8000DD20012A00F2368319465A1C0E9211F8E5
:103A9000020B674A0E91907059781170D91C0E91E3
:103AA0009B78537026E304F009FB23E35A1C0E9223
:103AB00019785D4A19B1116841F0020102E01168FC
:103AC00021F002015B4D116000269A1C0DF158098E
:103AD00049F8202D6E70AE702E715B784846AB7140
:103AE0000FF061FCA86048460FF05DFCE8604846B6
:103AF0000FF06FFC286148460FF06BFC64232884AC
:103B00004020AB84EB846E83AE83EE8305F024FB10
:103B100008F08EFBEEE25A1C0E921A4612F8025B77
:103B200016AE46F8202D5A78304605920FF03BFC31
:103B3000029030460FF037FC049030460FF033FC13
:103B4000834630460FF045FC81461FFA80FA304626
:103B50000FF03FFC83B2304603930FF03AFC0E9B0C
:103B60001FFA80FC581C0E901E780499029B089145
:103B70000793CDF824B0059ACDB9294B1B68580797
:103B80005CD52D4B187A002858D093F85C0100289A
:103B900054D09B7B002B51D007A812A9012210F012
:103BA0006BFD12A82946072211F0ACFAA2E2FF2D04
:103BB00044D1012A42D11A4B1B685B073ED51E4BEC
:103BC000187A00283AD093F85C01002836D0987B08
:103BD000A0B31B7803F0FD03052B2FD107A812A972
:103BE00010F04AFD09F1FF39BBF1000F1FFA89F906
:103BF0000CBF012203220FFA8AFAB9F5B37F4FF006
:103C0000640198BF42F0040212A801FB0AF111F00E
:103C1000D7FA6FE20000C84200002041FB0D0020EF
:103C20008C3E0020E00C0020841C0020E40B0020CF
:103C3000240E0020881C0020883700206B1E1D2BBE
:103C400000F25882C14B1B68580700F15382012AC9
:103C500002D0042A40F04E82BD4890F97D34864659
:103C600001339D4202D0012D40F044824FF01809EB
:103C70006B1E09FB03E383F8AC2103F5D679029BA5
:103C800089F81660C9F80430BDF80C30C9F808107E
:103C9000A9F81230A6F1A5035E425E41C9F80CB046
:103CA000A9F810A0A9F814C080F87D5480F87C64AD
:103CB00020E20EA80FF08DFBA64D28800EA80FF075
:103CC00088FB68800EA80FF084FBA88012E21946DA
:103CD0005A1C0E9211F8020B9F4A0E9159781070DF
:103CE0001171D91C0E919978D170191D0E91DB7844
:103CF0005371FFE10EA80FF06CFB974DE8800EA802
:103D00000FF067FB0E9B28815A1C0E921B780EA8A1
:103D1000AB720FF05EFBA881ECE15A1C16AE46F8C0
:103D2000202D1B78DFF83892304689F808300FF0E4
:103D300050FBA9F81A0030460FF04BFBA9F816000B
:103D400030460FF046FB0E9BA9F818005A1C0E9245
:103D50001B78082D89F8113040F2CC8130460FF0E5
:103D600038FBA9F81C0030460FF033FB0C2DA9F8E6
:103D70001E0040F2BF8130460FF036FB30460FF098
:103D800033FB30460FF025FB102D40F2B3810E9B24
:103D9000112D03F101020E921B7889F80B3000F00F
:103DA000A98130460FF0FFFA152DC9F80C0040F23A
:103DB000A1810E9B5A1C0E921B7889F8103099E154
:103DC0005A1C0E921A46654E12F8021B0DF1580944
:103DD00049F8202D31715B784846B3710FF0F9FA3C
:103DE000308048460FF000FB48460FF0F2FA0E9B79
:103DF00070805A1C0E921A78082DF27140F27A8166
:103E00009A1C0E925B78092D737100F073814846FD
:103E10000FF0DFFA308148460FF0DBFA7081484638
:103E20000FF0D7FAB08148460FF0D3FAF08161E184
:103E30005A1C0E921A784A4BDA745BE100230E9AF0
:103E4000511C0E911178464A99540133082BF6D132
:103E500050E10722B5FBF2F2C2EBC203ED1A31D1F9
:103E60005FFA82FAEBB29A4500F044810E9B4FF064
:103E700000095A1C0E921B78DFF8ECB00BEBC90658
:103E8000B278934219D1B3700EA80FF0A2FA0E9A2D
:103E90002BF83900531C0E93134613F8021B0135FF
:103EA0000E93F17053783371D31C0E939378B371E2
:103EB000131D0E93D3787371D4E709F10109B9F199
:103EC000040FD9D1FF235DB200E00125DDF8289071
:103ED00012A800211022ADF8345094F8CB60CDF830
:103EE0002C90CDF8288016F07FF924238DF84830E7
:103EF0001C4B0135334493F8F030C8EB09058DF8BD
:103F000049300CBF21233E238DF84A30002E3DD18D
:103F1000BDF83030FE2D8DF84C30C2BFFF238DF838
:103F20004B30072612ABD8BF052603EB0601CCBFEA
:103F3000ADF84D508DF84B500DF14B0200238A42E5
:103F400014D012F8010B4340F9E700BF8C3E00206B
:103F500088370020242D00206A0D00201C17002027
:103F6000002E002000B70108643C002041468DF877
:103F70001C306A1A4244002A03DD11F8012B534019
:103F8000F7E78DF81C304FF0010866E0012E47D1AD
:103F9000AB1DFE2BCCBFADF852308DF84B309DF8E9
:103FA00032304FF0FF028DF84D30BDF83030C8BFD1
:103FB0008DF84B208DF84C200DF14D014FF005028E
:103FC0004FF00000CCBF0C260A26ADF84E30ADF8FD
:103FD00050500FF0F6FD41462A468DF81C000FF0B8
:103FE000F0FD12AB99198DF81C000DF14B02002366
:103FF0008A4204D012F801EB83EA0E03F8E7414647
:104000008DF81D306A1A4244002A03DD11F8012B95
:104010005340F7E758408DF81D004FF002081CE0B0
:10402000022E49D19DF832300DF14B018DF84B3005
:10403000BDF8303005220020ADF84C30ADF84E50C0
:104040000FF0BFFD41462A468DF81C000FF0B9FD68
:104050004FF001088DF81C00082654F8050CDDF817
:1040600028900EF002F830B154F8050C03681B6A72
:1040700053B1984708E054F8050C0DF0FCFF731994
:1040800043449842F0DA17E054F8050C12A932467E
:1040900005F049FB54F8050C49462A4605F043FB58
:1040A00054F8050C07A9424605F03DFB54F8050CF1
:1040B00003685B6A03B19847069D002304F8013C3E
:1040C00035B154F8050C0DF02FFC54F8050CA84739
:1040D0000137032F04F1D8047EF4F7AC8FE0013DE3
:1040E0007EF466AE474A484B1A60484A484BDA604D
:1040F000FEF767BE0123E6E60C2803D145480AF027
:1041000069FA51E00A2801D00D286CD1424F0AF01B
:1041100085FA07F10C063046232116F07CF808B129
:10412000801BB860A368BBB3591E705C3A4A202854
:1041300001D10B46F7E79360384E134400221A73FF
:10414000D6F800A0DFF8D080504616F07AF807467F
:1041500008F10C093A464846514605F009FF304A35
:1041600058B9B84498F80C30A3F13001092904D9A2
:1041700023F02003413B192B03D808369642DFD3A6
:1041800006E0964204D2781C73684844984702E0DF
:1041900024480AF01FFA0023234800214022A3608C
:1041A00016F022F82B7853B30AF02AFAFEF71ABC5D
:1041B0000C28A3D07F2804D1FEF714BC3F2B3EF679
:1041C00011ACA0F12002D2B25E2A3EF60BAC13B9BC
:1041D00020283EF407AC5A1C2344A26018730AF04E
:1041E000E7F9FEF7FFBB7F28E8D1013BB36000226F
:1041F00033440E481A730AF0EDF9FEF7F3BB17B01B
:10420000BDE8F08FEFBEADDEF04F00200400FA05F0
:1042100000ED00E015D50108E40B002000B701080F
:10422000E0B7010820D50108F00B00203CD50108BB
:104230005428F7B505460C4600F0008700F2B0811F
:104240002A2800F0838600F2C7800E2801F09180B2
:104250004BD8042800F09E8213D8022800F08782F1
:1042600000F28882012841F0CF800B685A1C0A6056
:1042700000221A700B68591C21600221197001F08C
:10428000BDB8062800F0A987C0F08E820C2841F046
:10429000BB80BD4D0B6895F87221591C21601A70C6
:1042A0002046B5F87E110FF0C2F82046B5F880110F
:1042B0000FF0BDF82046B5F882110FF0B8F820468F
:1042C000B5F884110FF0B3F8236895F89421591CC0
:1042D00021601A70236895F87021591C21601A70AA
:1042E0002046B5F8961101F06BB8172801F015803B
:1042F0004AD8142801F06F80152800F0CD871028C7
:1043000041F08280A04DA149D5F8C40113F00EF907
:1043100013F0F8FA81B220460FF089F89B49D5F8DE
:10432000D00113F003F913F0EDFA81B220460FF03B
:104330007EF89649D5F8D40113F0F8F813F0E2FAB4
:1043400081B220460FF073F89049D5F8D80113F0E8
:10435000EDF813F0D7FA81B220460FF068F88B49D8
:10436000D5F8DC0113F0E2F813F0CCFA81B2204664
:104370000FF05DF8236895F83C21591C21601A70F4
:1043800095F8BF2101F03AB8242800F0D88507D865
:10439000222841F039807E4B03F1500600F063BCC7
:1043A000262800F0D185282841F02E80764D084639
:1043B000B5F8AC100FF03BF82046B5F8AE100FF092
:1043C00036F8236895F8B020591C21601A702046F1
:1043D000B5F8B21000F0F4BF402800F0EE8572D8B6
:1043E000362800F0F0853FD8322800F0E3853428E5
:1043F00000F042842C2841F00780664D0B682A7A31
:10440000591C21601A702046698B0FF010F8204665
:10441000E98A0FF00CF82046298B0FF008F8236882
:104420006A7C591C21601A702046A98B0EF0FFFF90
:104430002046E98B0EF0FBFF236800215A1C226006
:104440001970236820465A1C226019700EF0EFFF85
:104450002368EA7A591C21601A702046E9680EF038
:10446000D2FF2A7C00F0CABF3A2800F0F58519D89F
:10447000382840F0C987444B226893F8A610501C96
:1044800020601170226893F8AA10501C20601170EF
:10449000226893F8A910501C2060117093F8AB208B
:1044A00000F0ACBF3B2800F0B2833D2840F0AC8761
:1044B000354B226893F8BA10501C2060117093F8A5
:1044C000B92000F09BBF462800F08E8530D84428E4
:1044D00000F0798700F2B785422840F095872E4B8F
:1044E000294D1A780B682046591C21601A70D5F89E
:1044F0005C110EF088FF274B284E1A7A236820465D
:10450000591C21601A7031880EF091FF2046718885
:104510000EF08DFF2046B1880EF089FF2046B5F8D9
:10452000AC100EF084FF2046B5F8AE1000F048BF86
:104530004B2800F00E8508D8492840F06587124BBB
:104540000846B3F8C01000F03BBF4F2800F062856A
:10455000502840F059870B6801205A1C0A601870D7
:10456000094B226893F862111518256011702268B2
:1045700093F8601115182560117093F86121236874
:104580001918216000F044BDC40C00200000C8428E
:104590002D170020002E002074160020242D00204E
:1045A000712800F03E8173D8682800F0528257D8F5
:1045B000602800F050862DD85C2800F070855E28B9
:1045C00000F0BC855A2840F01F87994E0B6896F87A
:1045D000BE20591C21601A70236801255A1C2260D4
:1045E0001D7023685A1922601D70924B2268197A37
:1045F000501920601170D98820460EF018FFB6F8C7
:10460000661120460EF013FF236896F8BF20591953
:1046100000F0F6BE652800F0298116D8642840F025
:10462000F3860B6820465A1C0A60E7221A70824BF8
:104630001A780B68591C21601A7023687F495A1C2C
:10464000226000221A7000F009BD662800F0738114
:10465000672840F0D98608461022794900F0B0BC9E
:104660006C2800F0128206D86A2800F0DD8300F280
:1046700001840025FCE16E2800F02C82C0F0148239
:104680006F2800F06982702840F0BE86002596E20F
:104690007D2800F0F1841CD8752866D007D87328CF
:1046A00000F0A983624D40F25183002626E378286A
:1046B00000F0748104D8772840F0A68600213AE300
:1046C000792800F0E4837C2840F09E865D4D00F060
:1046D000C8BCA02800F0258418D8962800F0C68011
:1046E00097286ED07E2840F08F86514B226893F831
:1046F000BC10501C20601170534A11782268501C65
:104700002060117093F8402100F078BEA62800F0D8
:10471000E18322D8A42840F077860B6801205A1C38
:104720000A6018700B681A180A6000221A700B6869
:10473000191821601A70454B64211A8D2568B2FB47
:10474000F1F22E1826602A701B8D2268B3FBF1F35C
:1047500011182160137000F087BEF12800F04B8122
:10476000FE2840F051860025D1E3394A45E208464B
:1047700038495BE00B6801205A1C0A6018700B680E
:104780001A180A6007221A700B681A180A600322A6
:1047900000F03EBC08462A462F490EF02AFE2F4B59
:1047A0002046197800F00CBE08460B222C490EF06A
:1047B00020FE20462B4908220EF01BFE20462A49E7
:1047C000FDE30CF057FE236801255A1C2260187087
:1047D00023685A1C22601D700CF010FE23685A19C1
:1047E000226018700CF02EFE23685A19226018708F
:1047F0000CF0F2FD23685A19226018700CF0D6FDF7
:1048000023685A1922601870226853192360002304
:10481000137022685119216013702268511900F039
:1048200038BD01A811F098FF204601A90422C7E372
:10483000C40C00205E160020741600203C0000808E
:10484000300D002058160020642D0020881C002008
:10485000F3B70108DBD50108E0D50108B442002018
:10486000E5D50108F1D50108FAD5010801A811F034
:1048700073FFA84B204619880EF0D9FDA64B2046A1
:10488000198889B20EF0D3FDA44B1B6813F0040FF6
:10489000C3F340020CBF0026022613F0080F46EABD
:1048A00002060CBF0022042213F0400F46EA020663
:1048B0000CBF00220822164313F0200F03F0100251
:1048C00046EA02060CBF002340231E430CF0D2FD33
:1048D00008B946F40046314620460EF0A8FD904E39
:1048E00001A9042220460EF084FD23683279591C68
:1048F000962D21601A7040F085858A4B20461988D4
:104900000EF095FD884B204619880EF090FD874BE0
:10491000002219681346B58BB67F01F4007105B902
:1049200001B91EB1012090400343DBB20132062AD7
:10493000F5D100F0ACBC7E4B9A8903F12806B2F5A4
:10494000806F8CBF0827012703F1340556F8041F38
:10495000204691FBF7F189B20EF069FDAE42F5D128
:104960000125744B53F825006D4B0135196C12F07D
:1049700091FE15F0B7FD81B220460EF058FD042DD2
:10498000EFD16D4D05F10C0655F8041F204689B294
:104990000EF04DFDB542F7D100F034BD674D05F185
:1049A0006006298820460EF042FD698820460EF0F8
:1049B0003EFDA98820460EF03AFD2368AA79591CCD
:1049C00021601A70236820465A1C226000221A7047
:1049D00023680C35591C21601A70236815F8052CC2
:1049E000591C21601A7055F8101C0EF00CFDB542D0
:1049F000D7D100F007BD524B03F14000226813F8F5
:104A0000011C551C2560117022681978551C256001
:104A1000117022685978551C2560117022689978A8
:104A2000551C2560117022680433511C216000213F
:104A300011702268834202F1010525604FF0640580
:104A40001570226802F1010525601170D6D100F0C1
:104A5000D9BC0025052D96BF3A4B002133F815101F
:104A6000204601350EF0E3FC082DF3D100F0CABC5E
:104A7000354B1B789D4280F2C584344B204633F879
:104A800015100EF0D4FC0135F2E7314D08462988A7
:104A90000EF0CDFC698820460EF0C9FCB5F9043053
:104AA0000A2193FBF1F195E32A4DD5F8080115F0A1
:104AB00019FD014620460EF0A6FCD5F8140115F0AC
:104AC00011FD81B220460EF0B2FC154B2046D3F802
:104AD0009410C3E20B68124D5A1C0A6000221A702F
:104AE000D5F8A010204681F3100189B20EF09FFC8A
:104AF000B5F8A41020460EF09AFC95F8B130D5F820
:104B0000B41023B10A23594381F3100162E301F386
:104B10000F015FE3843E002058360020BC2C0020AB
:104B2000C40C0020A23E00208C3E0020841C0020EB
:104B30002C2D00200C1E0020F02C0020581D0020E1
:104B4000141D002034160020B41D0020C01D0020BC
:104B50009C3E0020883700200B685A1C0A606422A3
:104B60001A70A94A136899782368581C2060197034
:104B700000231168A44D19444879216801334E1C63
:104B8000032B26600870F4D12B6820461A7A23681C
:104B9000591C21601A702B68DA782368591C21602F
:104BA0001A702B681A792368591C21601A702B68B7
:104BB00019880EF03CFC2B685A7A00F01FBC11F0EB
:104BC000D9FE05EB45062368825D591C21601A70E9
:104BD00011F0D0FE236830444278591C21601A70CD
:104BE00011F0C8FE2368304482780135591C0A2D23
:104BF00021601A70E3D100F005BC12F8013F002BD0
:104C000000F000842168481C20600B70F5E70B68F9
:104C10005A1C0A600222F4E30C2101FB00F27B4DD6
:104C200005F1300E12F80E10B94220D12A4492F844
:104C3000381022680433501C20601170226813F869
:104C4000041C501C20601170226813F8031C501CB7
:104C500020601170226813F8021C501CB3422060BF
:104C6000117000F0CF8313F8017C0020D4E70130ED
:104C70002128D1D10021DCE7654B03F148012268EE
:104C80001878551C25601070226813F8030C551C09
:104C900025601070226813F8050C551C25601070F3
:104CA000226813F8040C551C25601070226813F854
:104CB000020C551C25601070226813F8010C063395
:104CC000551C8B4225601070D9D19BE301312129FD
:104CD00013D00C2202FB01F34C4800F1300E13F804
:104CE0000E20BA42F2D103445F6B384615F0A9FAA0
:104CF0003946024620460EF07CFB013695F83631E7
:104D00009E4280F27F83434B0021F75CE1E7013054
:104D100021280FD00C2202FB00F33C4D05F1300797
:104D2000DA5DB242F3D12B4493F838202368581C43
:104D300020601A700131384B93F83621914280F28D
:104D4000618303F58B73CE5C0020E3E7334F344E71
:104D50000846F98A0EF06BFB204631880EF067FB9F
:104D6000204671880EF063FB2046B1880EF05FFB91
:104D70002C4B204619880EF05AFB236895F83721F2
:104D8000591C21601A7023685A1C226000221A7074
:104D9000236895F83811581C20601970236895F81D
:104DA000B110581C206019702368F97C581C2060D1
:104DB000197023682046591C21601A70B5F93E31DC
:104DC0000A2193FBF1F189B20EF031FB236895F8CB
:104DD000A620591C21601A70236895F8AA20591C36
:104DE00021601A70236895F8A920591C21601A7057
:104DF00095F8AB2002E301232268511C2160137057
:104E00000133092BF8D1FDE2601C0020F4B7010842
:104E1000970D0020DA0D0020C40C0020002E002089
:104E20005E1600201C170020B24D0B686A79591CD1
:104E300021601A702368AA79591C21601A702046D3
:104E4000A9680EF0E0FA2046E9680EF0DCFA2B695A
:104E5000642193FBF1F1204689B20EF0E8FA204676
:104E6000298C0EF0E4FA2046698C0EF0E0FA204618
:104E7000298DA5E2A04D0846B5F84A110EF0D7FAE3
:104E80002046B5F84C110EF0D2FA9A4B5FE09A4BDF
:104E9000226893F84E11501C20601170226893F81C
:104EA0004F11501C20601170226893F85311501C50
:104EB00020601170226893F85211501C206011700C
:104EC00093F8502123682046591C21601A708B4B9F
:104ED000198875E28A4D084629880EF0A8FA696893
:104EE00020460EF090FAA96820460EF08CFAE96888
:104EF000804D20460EF087FA2046298D0EF097FA55
:104F00002046A98C0EF093FA2046E98C58E27D4B9E
:104F1000204633F8151001350EF089FA042DF6D12C
:104F200070E2794B084619680EF06DFA774B20460F
:104F300019680EF068FA764B204619688EE06E4BC1
:104F40000846D3F85C1189E0724D8AE0724B1A78FA
:104F500054E2724D0B682A79591C21601A7023683B
:104F6000AA79591C21601A70204629880EF05FFA30
:104F7000236820465A1C226000221A7069880EF0AD
:104F800056FA2368EA79591C21601A7023686A79F5
:104F9000591C21601A70204629890EF048FA2046D3
:104FA00069890EF044FA2046A9890EF040FA20469D
:104FB000E98905E25A4BDA7C20E208465849082282
:104FC0000EF017FA1EE2574D05F120062A7800234D
:104FD0005549C95C8A4200F029820C33302BF7D145
:104FE0000835B542F2D10DE202F04CFF23684F4D77
:104FF0005A1C22601870298820460EF004FAE968CD
:1050000020460EF000FA02F01DFF0146204625E082
:105010001A7029E20B6800255A1C0A601D700B6883
:1050200008465A1C0A601D700B685A1C0A60294603
:105030001D700EF0E8F9204629460FE00B685A1C57
:105040000A600022DDE108460B2239490EF0D1F951
:10505000204600210EF0D7F9204600210EF0D3F9AA
:10506000D0E1204629880EF0E2F9204669880EF04A
:10507000DEF92046A988A3E12E4B22681978501C3E
:105080002060117022685978501C206011702268CD
:10509000D978501C206011702046998890E1164BF9
:1050A000254D93F8C3200B682046591C21601A70C7
:1050B0002B6893F840100EF0BAF92B68204693F84D
:1050C00043100EF0B4F9204600210EF0B0F920464E
:1050D00001210EF0ACF9204600210EF0A8F920467F
:1050E00001210EF0A4F9204600210EF0A0F920467F
:1050F000012165E1881C0020C40C0020601F0020F5
:10510000C42C0020180E0020E8F7FF1FECF7FF1F4B
:10511000F0F7FF1F242D0020741600201C1700201C
:10512000002E0020663C0020883C00200800002063
:10513000E5D50108BE170020541C0020B34D0846D9
:105140002B680026B3F848100EF071F92B68204642
:10515000B3F84A100EF06BF92B682046B3F84410F0
:105160000EF065F92368AA495A1C22601E70236854
:105170000A275A1C22601E7023685A1C22601E7067
:105180002B68986D12F0D2F912F096FB236880F329
:1051900008005A1C226018702B682046B3F85C1077
:1051A0000EF045F9236820465A1C22601E702B68B9
:1051B0004FF6FF76196DB1FBF7F1B142A8BF31464A
:1051C00089B20EF034F92B68D96CB1FBF7F1B1421A
:1051D000A8BF3146204689B2F2E00B6800255A1C70
:1051E0000A6008461D702946884E0EF020F92046B8
:1051F00029460EF01CF93368204693F846202368B0
:10520000591C21601A7023685A1C226002221A70ED
:10521000804B59880EF00BF97F4B93F8C22023681E
:10522000591C21601A70336893F842202368591C76
:1052300021601A7023685A1C22601D7023685A1C52
:1052400022601D7023685A1C22601D7023685A1C3E
:1052500022601D70D6E0714B5A780B68591C216092
:105260001A706D4B226893F86E11501C20601170FB
:1052700093F841212368591C21601A702268531C3D
:105280002360002313702268511C21601370226870
:10529000511C21601370B5E05F4D0846B5F89011C0
:1052A0000EF0C5F8236895F87421591C21601A7016
:1052B000236895F87821591C21601A70236895F8A5
:1052C0007521591C21601A70236895F87721591CA3
:1052D00021601A70236895F87321591C21601A7097
:1052E0002046B5F892110EF0A2F82046B5F88E11BE
:1052F0000EF09DF82046B5F886110EF098F820467D
:10530000B5F888110EF093F82046B5F88A110EF022
:105310008EF82046B5F88C1152E03F4D0846B5F89E
:105320009E110EF084F82046B5F8A0110EF07FF81B
:105330002046B5F8A2110EF07AF8236895F89A2164
:10534000591C21601A70236895F89B21591C216013
:105350001A70236895F89C21591C21601A702368E3
:1053600095F8A421591C21601A702046B5F8A611A1
:1053700026E02A4D0846A9880EF059F8E98820460B
:105380000EF055F8298920460EF051F8698920461B
:105390000EF04DF8A98920460EF049F8E9891E4D16
:1053A00020460EF044F82046B5F842110EF03FF8C2
:1053B0002046B5F844110EF03AF82046B5F84611EB
:1053C0000EF035F81EE0164B1B685B071AD4CAB105
:1053D000144B136016E00B685A1C0A6000221A7006
:1053E0000B685A1C0A601E221A700F4B226893F831
:1053F0007C14501C2060117093F87D242368591C84
:1054000021601A7001202FE000202DE0541C0020A4
:105410000000C84274160020C40C0020642D002037
:105420008C3E002019670108883700202368204639
:10543000591C21601A7035F8021C0DF0F8FF236822
:105440006A78591C21601A702368AA78591C216057
:105450001A7023682A79591C21601A702368EA7827
:10546000591C21601A70BBE503B0F0BD00000000BC
:105470002DE9F04F824644F620608B4610EB0A027D
:10548000694E4FF0000141EB0B03C6E90023674B67
:1054900091B01C78C4B1664AD2E90001594508BFF1
:1054A000504580F0F080013C1C70ECE0072CD6BF2A
:1054B000604AE1B2A15C5B685F489847032C09DD54
:1054C0005E4B23F8140001345B4B1A781946944262
:1054D000ECDB1CE00028F3D0594B33F8241003EB2D
:1054E0008402401A4FF47A7343435288501A93FB54
:1054F000F0F040F2EE2300F57A709842B8BF1846FB
:1055000040F6CA039842A8BF184680B2D8E742F2D4
:1055100001054C4B1B681D40B5FA85F54A4B6D09DA
:10552000D3F8008035B996F82D3086F82C30474BEB
:105530005A781A7096F82FC00B780321BCFBF1F152
:1055400001933C4B01EB4101B3F81C90DB8B0F2224
:10555000C1EB0C0186F82E20029396F830E0CBB216
:105560003B4E03930020019B2F4C98423ADA04F102
:10557000080333F8103047004B4504F1940402D37C
:1055800002998B420CD954F82040324BA045FB5A6B
:105590000AD9032808DC0124844022EA040203E03B
:1055A00008F5967144F82010BDB9039926F811301A
:1055B000BEF1000F02D1BCF1020F0ED973883488FE
:1055C0004FF0010E1C44B3882344234C9BB23B5341
:1055D0001BB2032493FBF4F39BB21E4C01303B53EC
:1055E0000636C0E7A2F10F0084F82E204242424165
:1055F00084F830E084F8FC20134F144E174D7AB332
:10560000122003F061FE58BB94F82C3043B333787A
:1056100033BB3B686A692B619B1AEA6893422DD9B8
:10562000012385F8293029E0F00F0020302E0020DA
:10563000282E0020002E0020B41D0020F80F00208E
:105640000A310020C02C0020102C0020180000205F
:1056500022100020C01D0020CC100020342E00207D
:1056600001232A69737033703B686B619B1AAA68C7
:10567000934282BFA64B002283F8292094F82F3052
:10568000013384F82F30A34B1A68019312F4805F22
:1056900006D0002003F018FE10B9032009F0EEFB3D
:1056A0009D4AD37C9146C3B19C4A013B32F9130019
:1056B000A0F57A70B0F57A7FA8BF4FF47A7020EA2F
:1056C000E07011F0DFFE964911F0E4FF954911F00A
:1056D0002DFF12F017F9944B188099F815302BB163
:1056E000914A1388C3F57F730333138086A3D3E9EC
:1056F00000235B4508BF5245854D03D2AB780BB9FB
:105700000123AB70AC78894E002C00F04C81804BAB
:10571000326893F82970864B791E4F424F41D989E0
:10572000C2F3800B984601B37C4BB9F816E0B3F98D
:105730000240CEEB040080EAE074A4EBE074B3F91D
:105740000000B3F90430CEEB000C8CEAEC70A0EB57
:10575000EC700444CEEB030080EAE073A3EBE0734B
:105760001C448C4234BF002401243FB912F0080FBE
:105770000CBF4FF0000A4FF0030A01E04FF0000A9F
:1057800095F82830072B00F20881DFE813F00800B5
:105790003A005E0064008900A800DB00F100BBF164
:1057A000000F1DD003F0F2FD012801BF614BB8F8D6
:1057B00002201B68642104BF01FB0233AB61002F90
:1057C00040F0EB80B8F8023023B15A4B1A68AB694D
:1057D0009A422FD8584B1B681A062BD4012312E08B
:1057E000122003F071FD00B927B94FF4806003F077
:1057F000CBFC03E04FF4806003F0B6FC0023AB6108
:10580000CBE01FB1072385F82830B9E798F80730B7
:10581000012B0FD00CD3022B13D1032003F0C4FCB7
:10582000464B01225A7408F0E9FC0FF009FFA7E784
:10583000042007E0052003F0B7FC40F6B8336B62A4
:105840009EE7022003F0B0FC9AE7002F00F0A5804D
:10585000002CD7D1A1E0394B3FB134B100225A74AA
:1058600008F0CCFC0FF0ECFECCE75A7CBBF1000F4B
:1058700018BF4FF0040A002A00F0E3842F4A304892
:1058800012781C2101FB0201498901F402710029EF
:1058900000F0D7840E2A1DD0182A1BD000F039BD85
:1058A0002FB134B1072385F82830012302E03B46AD
:1058B00000E0234698F80620BBF1000F18BF4FF018
:1058C000040A22B11B4A1168EA69914202D8BBF16D
:1058D000000F5FD147F230536B62052393E73368C3
:1058E000062043F08003336009F0C8FA114B6A6A5E
:1058F0001B6813442B62062385F8283000232B7184
:105900003EE700BFAFF30080404B4C0000000000BA
:10591000342E0020C02C0020002E0020C01D0020AE
:1059200000007A4400C07F44680D00208C3E0020B7
:105930001C170020102C0020841C00208837002019
:1059400070C801089F4B77B11A682B6A9A4224D914
:105950009D4B187810B903F0B7FCF0B9336823F009
:10596000800333604EE71B686A6A13442B6214E0BD
:10597000944BB8F802201B68642101FB02334FF4FA
:105980008060AB61002385F82830EB702B7103F049
:10599000EBFBF5E6002B7FF4F3AEBAF1000F02D07B
:1059A000504604F01BFC03F0F1FC3368834613F00F
:1059B000040F864CDFF80C82854F35D0019B1B68A5
:1059C000DB0631D5834B1B68D8062DD47E4B1B7864
:1059D0008BB1BB78BBF1000F15D17BB1D8F800209B
:1059E000D4F800319B1A002B08DA012009F046FA9E
:1059F00084F804B118E0BBF1000F0DD1112004F0C0
:105A0000EDFB01230EE03BB1D8F800204FF47A7192
:105A100001FB0323C4F8003194F8043123B104F0EE
:105A2000C9FB002384F804316B487B78B0F900206F
:105A30000393B9F81830B9F81A109A42CCBF4FF056
:105A4000020C4FF0000C8A42B8BF4CF0010CB0F9C8
:105A5000022097F800A09A42CCBF082700278A426C
:105A6000B4BF04220022B0F904904CEA07071743A0
:105A70009945CCBF2022002202908945B4BF102056
:105A800000203A4302435448D8F800E0B0F9060039
:105A90009842CCBF802300238842B4BF402100211C
:105AA0001343D4F808210B439342484884F8053146
:105AB0000DD190F80C21F92A0CD8D0F81011C1EBB7
:105AC0000E01132906D9C0F810E1013200E00022CE
:105AD00080F80C213C4FC4F808313B78DFF8EC909B
